:020000040800F2
:1000000000600020190D00081D0D00081F0D0008DC
:10001000210D0008230D0008250D00080000000038
:10002000000000000000000000000000270D000894
:10003000290D0008000000002B0D00082D0D000800
:100040002F0D00082F0D00082F0D00082F0D0008A0
:100050002F0D00082F0D00082F0D00082F0D000890
:100060002F0D00082F0D00082F0D00082F0D000880
:100070002F0D00082F0D00082F0D00082F0D000870
:100080002F0D00082F0D00082F0D00082F0D000860
:100090002F0D00082F0D00082F0D00082F0D000850
:1000A0002F0D00082F0D00082F0D00082F0D000840
:1000B0002F0D00082F0D00082F0D00082F0D000830
:1000C0002F0D00082F0D00082F0D00082F0D000820
:1000D0002F0D00082F0D00082F0D00082F0D000810
:1000E0002F0D00082F0D00082F0D00082F0D000800
:1000F0002F0D00082F0D00082F0D00082F0D0008F0
:100100002F0D00082F0D00082F0D00082F0D0008DF
:100110002F0D00082F0D00082F0D00082F0D0008CF
:100120002F0D00082F0D00082F0D00082F0D0008BF
:100130002F0D00085F0F00082F0D00082F0D00087D
:100140002F0D00082F0D00082F0D00082F0D00089F
:10015000DFF80CD001F0D8FE004800479D030008EE
:100160000060002010B5A82001F021FAC049A820A5
:1001700001F009FAC02001F01AFABD49C02011317E
:1001800001F001FABA4900201439886010BD10B599
:1001900000F0B0FFB74A906940F2792108439061BE
:1001A000B548016821F0F0010160016841F04001AB
:1001B0000160B249486820F470204860486840F403
:1001C00080204860AE48036823F47F2303600368FF
:1001D00043F44C330360031D1C6824F470041C605A
:1001E0001C6844F440141C60A64B1C6824F0706426
:1001F0001C601C6844F040741C60A34B5C6844F0B5
:1002000008045C60036823F07F630360036843F0C5
:1002100096630360D06940F40030D0619B4A40F29D
:1002200035101080994A00200C321080121F108067
:10023000964B42F20C021B1D1A800A6822F47022AF
:100240000A609349086092494FF4A0402039086041
:100250008F490E200831086088158D4928390860BB
:100260008B488C4924380160016841F00801016025
:1002700001680907FCD4016841F0040101600168CC
:100280004907FCD4016841F4A001016010BD7F4A18
:10029000121F111F0A2804D10B881B06FCD50D2341
:1002A00013800B881B06FCD5C1B21180704700215A
:1002B000C20701D04FF48041724A0C321160121D06
:1002C00081F4804111600021820701D54FF4005173
:1002D000420701D541F00801000701D541F01001A6
:1002E00067481030016042F2180041406448143001
:1002F00001607047002120B9654820300068C0F3D4
:100300000B0188B270475C490020091D0968890506
:1003100000D4012059498968890401D440F00200C1
:10032000C0B270472DE9FC41514C143CE0680028F4
:100330002AD02069002827D004220021564804F042
:1003400067FA02462069544D00F000410A434FF01D
:10035000000104F125074FF0010605D0401E206181
:1003600014D0B0F1004F0FD121614CA1404802F0F0
:1003700057F8E978A878CDE900016B782A784AA186
:10038000384602F04DF8A660BDE8FC8149A1384628
:1003900002F046F84C48A6602061F5E700F018F836
:1003A0004AA002F02DF8324C0125143C3220656041
:1003B0004FF0E02620613069C00302D505F0B4FC9F
:1003C000E56004F0E1F9FFF7ADFF00F030F8F2E787
:1003D00008B5FFF7DCFE00F095FF0F2001F091F863
:1003E0000F2001F08BF84FF6FF7001F084F83CA16C
:1003F000002001F0C8F83EA1182001F0C4F84148DF
:100400003223032100901A46084601F0D2F8FFF784
:10041000A9FE03F0E3FF3C480A210068B0FBF1F1BC
:100420004FF0E020491E41610521016108BD1CB566
:1004300036A10F4BD1E90001143BCDE90001D8688A
:10044000012814D10024DC60586801280AD11968F9
:100450001DF80100FFF72BFF1868401C18600828E2
:1004600000D31C609868012801D1FFF77BFE1CBDFA
:100470001400002000100240040C01400010014054
:1004800000140140041801400000014008440040ED
:100490002C24014003000E00C45D0020495020615F
:1004A0006464726573733A0025642E25642E256496
:1004B0002E2564002044484350206661696C6564C1
:1004C00020202020000000001E00008050726F6776
:1004D00072616D20737461727465640A00000000BB
:1004E0002020202020205453564E2D31303700003C
:1004F0002020202048545450206578616D706C6530
:1005000000000000F45F0008580000200103070FFE
:100510000E0C08002DE9F043804687B0282002F039
:1005200005FCDFF8F093054602AC05AE04AF2822C7
:100530002946404603F0F6FA8046287800281DD068
:10054000F5A1284604F0B8FF012818D0F3A12846E9
:1005500004F0B2FF012827D0F2A1284604F0ACFF36
:10056000012836D0F0A1284604F0A6FF012845D086
:10057000EFA1284604F0A0FF012854D067E0CDE9A0
:100580000076231D02AAECA1E81C01F079F802997B
:1005900089F80010039989F80110049989F802106C
:1005A000059989F8031052E0CDE90076231D02AACF
:1005B000E1A1281D01F064F8029989F80810039957
:1005C00089F80910049989F80A10059989F80B101F
:1005D0003DE0CDE90076231D02AAD7A1E81C01F079
:1005E0004FF8029989F80410039989F805100499C5
:1005F00089F80610059989F8071028E0CDE90076FA
:10060000231D02AACCA1681D01F03AF8029889F8CE
:100610000C00039889F80D00049889F80E000598DD
:1006200089F80F0013E0CDE90076231D02AAC2A1CC
:10063000681D01F025F8029989F81010039989F8CE
:100640001110049989F81210059989F81310B8F15E
:10065000000F7FF46CAF284602F0B4FF07B0BDE88E
:10066000F0832DE9F04F87B00F4600286DD1B54CCF
:100670008046DFF8D4A284F800804FF0010940469C
:10068000CAF80090002A5ED00026282002F04EFB17
:10069000DFF8B8B2054628222946384603F042FA68
:1006A0000746287800284DD0A9A1284604F004FF69
:1006B00001284DD0A8A1284604F0FEFE01284BD009
:1006C000A7A1284604F0F8FE012849D0A6A1284693
:1006D00004F0F2FE012847D0A5A1284604F0ECFE64
:1006E000012845D0A4A1284604F0E6FE012843D005
:1006F000A3A1284604F0E0FE012841D0A2A128468B
:1007000004F0DAFE01283FD0A1A1284604F0D4FE6F
:1007100001283ED0A2A1284604F0CEFE01283BD0FD
:10072000A0A1284604F0C8FE01283CD09FA128467D
:1007300004F0C2FE01283DD09EA1284604F0BCFE74
:1007400001283AD040E0FFF7B2FD07B0BDE8F08FD6
:10075000207840F001001AE0207840F0020016E016
:10076000207840F0040012E0207840F008000EE00D
:10077000207840F010000AE0207840F0200006E0E9
:10078000207840F0400002E0207840F080002070A7
:100790001AE0CAF8008017E0E91C684604F074FE0D
:1007A00046F0010610E0291D03A804F06DFE46F096
:1007B000020609E0691D814802E08048691D113088
:1007C00004F062FECBF80090002F7FF464AF28465F
:1007D00002F0F8FE2078FFF76AFD032EB5D16846D7
:1007E00000F038FF82B203A9684603F0EBFF01284E
:1007F000ABD16946724804F047FEA6E72DE9F04701
:10080000044600780026DFF83C8188B00F46914608
:100810001D464FF0010A652876D00BDC612812D006
:10082000622842D0DFF89CA1674963286DD0642814
:100830006CD124E166286AD0672869D0782868D00E
:100840007928F5D1ADE1A17832486D2911D004DCC9
:10085000672915D06929EBD104E0702917D07329D5
:10086000E6D11BE0C2788178CDE9001243780278A6
:1008700081E1C27A817ACDE90012437A027A7AE183
:10088000C2798179CDE900124379027973E1C27BA3
:10089000817BCDE90012437B027B6CE1C27C817CD1
:1008A000CDE90012437C027C65E1A07863280DD07D
:1008B0003038C0B2072800D900200AFA00F1C8B2C7
:1008C00098F8001001420DD040A25BE11E4801687B
:1008D000002901D03FA300E011A301D010A24AE1FA
:1008E0003CA248E10EA24DE1384601F099FD4BE1F2
:1008F00028883B4A00EB400101EBC001401C2880E6
:1009000002EB8104B8196DE0C8E0AAE0B6E007E1A7
:1009100011E13EE1C45D002069703D006D736B3DE7
:100920000000000067773D0070646E733D000000BA
:1009300073646E733D00000025642E25642E2564CB
:100940002E2564003800002004000020080000204C
:100950006C6564303D6F6E006C6564313D6F6E0098
:100960006C6564323D6F6E006C6564333D6F6E0084
:100970006C6564343D6F6E006C6564353D6F6E0070
:100980006C6564363D6F6E006C6564373D6F6E005C
:100990006374726C3D42726F777365720000000081
:1009A00070773D007077323D000000006C63643169
:1009B0003D0000006C6364323D0000001400002024
:1009C000AC1500207C73000889DB00086368656350
:1009D0006B65640073656C6563746564000000009A
:1009E0006436002077A101F01BFD94F800C0064496
:1009F000BCF1010F09D80CEB4C0000EBCC0101EB72
:100A00000A032A88B819744919E0BCF1020F1FD0F3
:100A1000E0790DF10C0EE38B62892189AEE80F00BD
:100A20002079A27961798DE807000CEB4C0000EB8E
:100A3000CC0101EB0A0368492A88B819903101F00A
:100A4000EFFC0644298898F8000081420AD10EE0A4
:100A5000614B6089663B00902A88B81903F1AE01AA
:100A6000EDE7884606F196014945FFF441AF298834
:100A700098F80000814201D246F4004685E0A07853
:100A8000312802D03228F9D106E05448007808B164
:100A900053A277E054A275E0564A73E003F034F8AD
:100AA000054655A100F0DEFD50B354A1284600F0E4
:100AB000D9FD38B353A1284600F0D4FD20B353A18B
:100AC000284600F0CFFD08B351A1284600F0CAFD2A
:100AD000F0B151A1284600F0C5FDD8B150A128467B
:100AE00000F0C0FDC0B14FA1284600F0BBFDA8B189
:100AF0004DA500BF03F008F803462A46A11C5DE09F
:100B00004BA5F7E74CA5F5E74EA5F3E750A5F1E7B0
:100B100051A5EFE753A5EDE755A5EBE756A5E9E7A6
:100B2000A078312802D032282FD101E0544A29E0A0
:100B3000534A113226E0A178312906D05148322992
:100B4000406809D0332920D117E00020FFF7D2FBFD
:100B50000246C8F8040015E000F0EAFE00F015FFB8
:100B60004FF06632484B00F05CFE6FF00B0200F075
:100B7000C8FE02460B46211D20E064225043020BB2
:100B8000C8F80420211DAFE6064608B0B0B2BDE8A3
:100B9000F0870020FFF7AEFB0246611CC8F8040096
:100BA000A2E6FFF7B0FB6278A2F130030AFA03F184
:100BB000084201D035A300E036A338A1384601F041
:100BC0002FFCE1E73C747220616C69676E3D226323
:100BD000656E746572223E00F873000898DB0008A9
:100BE000456E61626C65640044697361626C656442
:100BF00000000000AC150020656E0000656E2D75CC
:100C000073000000656E2D676200000064650000DF
:100C100064652D636800000064652D617400000048
:100C200066720000736C0000556E6B6E6F776E001D
:100C3000456E676C69736800456E676C6973682000
:100C400055534100456E676C697368204742000048
:100C50004765726D616E00004765726D616E20437D
:100C6000480000004765726D616E2041540000002D
:100C70004672656E63680000536C6F76656E650042
:100C8000140000203800002066660A407472756502
:100C90000000000066616C73650000003C636865DD
:100CA000636B626F783E3C69643E627574746F6E0C
:100CB00025633C2F69643E3C6F6E3E25733C2F6F6D
:100CC0006E3E3C2F636865636B626F783E00000088
:100CD000FEE710B503F0B2FB03F024FC03F016FCB2
:100CE00003F0BEFB03F0FEFBAFF3008010BD10B5B8
:100CF00004F0C8F904F054FDBDE8104004F01ABA3D
:100D000004F0DEB803F0A6BE09B10020704702F07F
:100D10000DBC00207047000005480047FEE7FEE7D5
:100D2000FEE7FEE7FEE7FEE7FEE7FEE7FEE7FEE79B
:100D3000510100082DE9F047CD48816941F03D019E
:100D40008161416941F4E0314161CA494A6842F434
:100D500000124A60C8490A686FF30F020A600A6805
:100D600044F644331A430A60091D0A6822F00F0250
:100D70000A600A6842F00B020A60C0490A68C04B68
:100D80001A400A600A68BF4B1A430A60BE490A68E3
:100D90004FF6F07822EA08020A600A6844F6B03397
:100DA0001A430A60B9490A686FF313020A600A68B5
:100DB000B74B1A430A60816A41F480418162816ABB
:100DC00021F480418162B34D286840F00100286021
:100DD0002868C007FCD1B04C8146C4F810904FF48D
:100DE0000041484600F033F900274FF480360020D8
:100DF00000F01BF910F4084F02D07F1CB742F6D365
:100E0000022000F012F90746032000F00EF900EA74
:100E10000800A24940EA0740884216D1A0A1482014
:100E200000F0B1FB4FF44051002000F010F9002712
:100E3000012000F0FAF8800604D59EA1602000F0A1
:100E4000A2FB02E07F1CB742F2D30027B04610207D
:100E500000F0EBF80646C00704D09BA1782000F014
:100E600092FB02E07F1C4745F1D34FF40050206015
:100E7000700703D5206840F400602060B00703D4F9
:100E8000206840F4804020604FF4826060608020E1
:100E9000A0619048818821640178D0F8010041EA7E
:100EA0000020606400F09EF88B498D4A002081F894
:100EB0000090DFF828C2014602F5C156491C0229FC
:100EC00000D1002102EB0013C3F800C000EB400783
:100ED00006EB47279F6002EB0117401CDF600228EA
:100EE000ECD32A617F48A861206840F00C002060A4
:100EF0004FF0FF3068617C48E861BDE8F0877B49CE
:100F00004FF000500860704779494FF0005008607A
:100F10007047F0B5704E724A317802EB01131A68CF
:100F2000002AFCDB9C68021D24F003050488E41CF5
:100F3000A40803D080CA641E80C5FBD10088586015
:100F4000186840F000401860491C022900D10021B7
:100F5000504831700221416100214160F0BD2DE90E
:100F6000F047DFF87C815C4FA8F14008494E35E03E
:100F70007061400632D57C7808EB0415286849F288
:100F80001A01084222D12868C0F3012003281DD18C
:100F9000286840F2EA51C0F30D40A0F104098945E8
:100FA00014D849F0004001F0C1FE78B1A96809F1F8
:100FB000030221F00303011D920805D053F804CB6E
:100FC00041F804CB521EF9D103F0DCFF4FF0004092
:100FD0002860641C042C00D100247C707069C1035B
:100FE000C6D48AE7F0B500203B493D4B4FF00045A1
:100FF0004870403B01464FF48C4603F16004491CA5
:10100000042900D1002103EB0012156000EB40071A
:1010100004EB4727C2E9016703EB0117401CD760C7
:101020000428ECD31B48C360F0BD40F6010141EA3F
:1010300080111948016100214FF4A0220369DB07E8
:1010400002D0491C9142F9D3406980B27047124ADC
:10105000516140F6030141EA8010106100204FF415
:10106000A0211369DB0702D0401C8842F9D37047E6
:10107000001002400000014000080140040C014043
:10108000F00000FF0BB4BB0000100140041401404D
:10109000444404000090024000800240905C002024
:1010A000445038333834384320446574656374657C
:1010B0006400000052756E204175746F6E65676F35
:1010C00074696174696F6E004C696E6B206973207E
:1010D0006F6E00005000002056000020000010300D
:1010E00024390020022010004100010004E100E04A
:1010F00084E100E070B54449122008604448434947
:1011000041604449C1624449016001688903FCD5DA
:10111000016841F08051016001688900FCD50168D7
:1011200041F08061016001680901FCD5016841F06E
:101130008071016001688901FCD54168C1F38101BA
:101140000229FAD14468C16A344D14F0030205D073
:101150003348012A30D0022A2FD101E031482BE058
:10116000220CD2071FD00A0CD2070CD0C1F30312F5
:10117000521CB0FBF2F0C1F303220B2A01D2921CE5
:1011800000E0121D504311F00E0F05D001F00F01C9
:10119000491CB0FBF1F007E0610CC90704D000EB7B
:1011A000D070401000E02048C4F383410D2918D0CE
:1011B00001F1020100FB01F068602006686805D5B6
:1011C000C4F3021101F1010120FA01F02860A860C6
:1011D00061050FD5C4F30121491C20FA01F1E96032
:1011E00009E000F0AAFB0022104B00F01AFB00F00F
:1011F000B5FBE1E7E860A10403D5C4F3C121491CB4
:10120000C840286170BD00000020024002841D0B10
:1012100000100240448601008200010058000020B6
:1012200040787D0100127A0000093D0000001A405C
:1012300030B5F2494FF400520A60F14B40225A6136
:1012400054020C6014020D1D2C60EE4D28600C60E1
:101250001A6130BDE94930B5091D4FF400520A60EA
:10126000E74B40225A6155020C1F256015020D60A4
:10127000E449086025601A6130BD70B5E1494FF05E
:101280004430083908600A1F1060DC484B140360C2
:101290005B000360DA4C402363615D02061D35602C
:1012A0000560081D0068236180B24FF033330B6086
:1012B000136070BD2DE9F04104460D4616461F46E9
:1012C0002A20FFF7C7FF200AFFF7B2FFE0B2FFF7BF
:1012D000AFFF280AFFF7ACFFE8B2FFF7A9FF2B200A
:1012E000FFF7B8FF300AFFF7A3FFF0B2FFF7A0FF48
:1012F000380AFFF79DFFF8B2FFF79AFFBDE8F0410B
:101300002C20A7E7F8B5C048816941F07D018161D3
:10131000BC494FF033300C390860091D0860B848EB
:10132000016821F070610160016841F04071016065
:10133000B2490C390A68C2F313020A600A68B34B57
:101340001A430A6040210161AC494FF460400860D3
:101350000A2000F047F9D320FFF77CFFFFF78DFF4D
:101360000446FFF78AFF0546FFF787FF0646FFF7AB
:1013700084FF009033462A462146A5A001F040F89C
:101380001120FFF767FF142000F02CF9D020FFF7A1
:1013900061FF0720FFF74CFF4120FFF749FF1F20A7
:1013A000FFF746FFD120FFF755FF0020FFF740FF72
:1013B0002C20FFF73DFF1A20FFF73AFFD220FFF75E
:1013C00049FF0120FFF734FF1120FFF731FFC02054
:1013D000FFF740FF0020FFF72BFF3B20FFF728FF20
:1013E0000020FFF725FF0220FFF722FF1120FFF763
:1013F0001FFFC520FFF72EFF0220FFF719FFC820AF
:10140000FFF728FF0720FFF713FF0720FFF710FF64
:101410000720FFF70DFF5020FFF70AFF0820FFF716
:1014200007FF0020FFF704FF0720FFF701FF072059
:10143000FFF7FEFE0720FFF7FBFE0520FFF7F8FE93
:101440000220FFF7F5FE0620FFF7F2FE3620FFF739
:1014500001FFE820FFF7ECFE3A20FFF7FBFE5520E6
:10146000FFF7E6FEF020FFF7F5FE0120FFF7E0FEB4
:10147000F320FFF7EFFE4020FFF7DAFE0A20FFF728
:10148000D7FE2A20FFF7E6FE0020FFF7D1FE00205E
:10149000FFF7CEFE0120FFF7CBFE3F20FFF7C8FE8F
:1014A0002B20FFF7D7FE0020FFF7C2FE0020FFF73A
:1014B000BFFE0120FFF7BCFEDF20FFF7B9FE78205A
:1014C00000F090F82920FFF7C5FE2C20FFF7C2FEA0
:1014D000BDE8F840052000F085B80B461A460146E5
:1014E000E8E610B589B280B2FFF7F7FF52480088EE
:1014F000BDE810409CE65049088070474E4948803E
:10150000704770B506460022F0234FF4A0711046D4
:10151000FFF7D0FE00244FF496353046FFF788FEE3
:10152000641CAC42F9D370BD2DE9F0410C469046E5
:1015300000F1170182B28BB204F10F0081B20025D5
:10154000A0B2FFF7B7FE3C4F0126002438F8150083
:1015500006FA04F108420BD0B7F80000FFF768FE66
:10156000641C102CF2DB6D1C182DEED3BDE8F0814D
:101570007888F3E7203A304BD2B202EB42021B1DCF
:1015800003EB0212D0E72DE9F041002507460C4697
:101590002E4606E031463846FFF7ECFF1036641C55
:1015A0006D1C2278002AE1D0142DF3D3DEE723A1AD
:1015B000E9E770B502FB03F502440B44521E96B2F4
:1015C0005B1E8AB29BB2314680B2049CFFF772FE6A
:1015D000002604E034F8020BFFF72AFE761CAE4228
:1015E000F8D370BD012242F2107304E00121491CBE
:1015F0009942FCD3521C8242F8D970471014014022
:10160000001001400C18014000100240000030336F
:10161000696430203D2025582C20696431203D200C
:1016200025582C20696432203D2025582C206964DF
:1016300033203D2025580A006C0000202020202067
:10164000202020202020202020202020202020209A
:10165000000000000146002000E0401C0A5C002A57
:10166000FBD1704710B5002200E0521C835C8C5CFB
:10167000A34201D1002BF8D1D8B2E1B2401A10BD7B
:101680000FB400B58DB010A909900B9000914FF0E8
:10169000FF300A9000200C900548069005480790FE
:1016A0006A4609A80F9900F0F1F90DB05DF814FB36
:1016B000AD1A0008CB1A00082DE9FF5F1D464FF058
:1016C000FF3BD5E9014691465F464FF00008A96906
:1016D0007F1C01988847296A824688470028F6D1EE
:1016E0001AF101000CD024F4C064002E19DD60064C
:1016F00014D5BAF12B0F09D0BAF12D0F0ED103E09A
:10170000584604B0BDE8F09F44F48064A9697F1C8A
:1017100001988847761E8246002E02DDBAF1300F0E
:1017200003D0B9F1000F26D032E0761EA96944F447
:1017300000747F1C019888478246002E05DDBAF1AF
:10174000780F06D0BAF1580F03D0B9F1000F10D0BE
:101750001EE0B9F1000F02D0B9F1100F18D1761EBA
:10176000A96924F400747F1C0198884782461020E0
:1017700002E0082000E00A20814609E008FB090891
:10178000761EA96944F400747F1C0198884782463C
:10179000002E05DD4946504600F064F90028EDDAD8
:1017A000E96901988847A00502D46FF00100A8E715
:1017B000E00727D1600614D5600502D5C8F1000006
:1017C00000E04046296801F104022A600968220508
:1017D00001D5087016E0220701D5088012E00860E4
:1017E00010E0286800F1040129600068210502D595
:1017F00080F8008006E0210702D5A0F8008001E013
:10180000C0F8008038467CE770B5064600F01CFE44
:10181000046805460A220021304600F067F92C6072
:1018200070BD2DE9FE4F81EA030421F0004504F06C
:10183000004423F000414FF0000A009450EA0503F1
:1018400002D052EA010304D10020014603B0BDE8F2
:10185000F08FC1F30A53C5F30A541C44A0FB02B332
:10186000C5F3130545F4801CC1F3130141F480183E
:101870000CFB023300FB083EA4F2F334810A930A06
:1018800041EA8C5143EA88530194A1FB03474FEA94
:101890009C2505FB03734FEA982601FB06373D059F
:1018A000260545EA1435BBEB06016EEB0503850EF4
:1018B000920E45EA8C1542EA8812A5FB0206261E06
:1018C00067EB00070C0D44EA0334A41947EB1350EF
:1018D000C1F313064FF0000319464FEA033343EAFE
:1018E000165343EA0403019CE5FB0201A4F10C0436
:1018F0000294009C4FEA0632CDE900A400F071F991
:10190000A4E770B521F0004303430CD0C1F30A549F
:101910000026D4EB060566EB0603D417AD1AA341E7
:1019200002DB0020014670BD001C41EB025170BD7E
:1019300096230022114600F01AB90EB5C10F80EAB5
:10194000E0700844CA07002140F233438DE80E00DE
:101950000A460B4600F045F903B000BDC1F30A5238
:10196000C1F3130140F2FF3341F480119A4201DACE
:101970000020704740F233439A42A2F2334202DC25
:10198000524200F05FB89040704700F0004230F0E3
:1019900000400DD0C10D01F5607142EA01510022F5
:1019A000C0F31600520742EAD002400711437047C5
:1019B00000200146704730B50B460146002020222A
:1019C000012409E021FA02F59D4205D303FA02F54C
:1019D000491B04FA02F52844151EA2F10102F1DCAC
:1019E00030BD2DE9F05F0546002092469B468846B3
:1019F0000646814640241BE028464146474622468B
:101A000000F020F852465B46801A994110D31046E8
:101A10001946224600F08AFA2D1A67EB01084F4654
:101A200022460120002100F081FA17EB00094E4107
:101A3000201EA4F10104DFDC484631462A46434615
:101A4000BDE8F09F202A04DB203A21FA02F00021B1
:101A5000704721FA02F3D040C2F1200291400843BE
:101A6000194670473A2800D2303820F02002412A27
:101A700001D3A2F13700884201D34FF0FF30704705
:101A80000268114413780160184670470B461146EE
:101A9000044A4A61044A0A620022C1E9033200F0A2
:101AA00075BA0000811A0008791F0008426842B127
:101AB000016811F8013B23B1521EC0E9001218461B
:101AC00070470121C160881E7047416859B1C368E1
:101AD000026843B98368934205D0521E491CC0E98D
:101AE0000021002070474FF0FF3070472DE9F0478C
:101AF0000F46914680460446002614F8015B2DB13E
:101B000000F036FA0068405DC007F6D12B2D02D0F8
:101B10002D2D18D0641E4A463946204600F0C8FBD9
:101B200027B13968A14201D1C7F8008071054FF093
:101B300002040BD54042002803DD00F085FC046060
:101B4000A007BDE8F08746F48066E4E70028F8DAED
:101B500000F07AFC04606FF00040F2E70029A8BFB3
:101B60007047401C490008BF20F00100704710B4C6
:101B7000B0FA80FC00FA0CF050EA010404BF10BC7B
:101B8000704749B1CCF1200421FA04F411FA0CF1A8
:101B900018BF012121430843A3EB0C01CB1D010613
:101BA000000A002BBEBF002010BC704700EBC350E2
:101BB00010440029A4BF10BC7047401C490008BF56
:101BC00020F0010010BC704710B5002B08DA401C53
:101BD00041F1000192185B411A4301D120F001004C
:101BE00010BD2DE9F04D92469B4611B1B1FA81F23C
:101BF00002E0B0FA80F22032904600F097F90646F3
:101C00000F4640EA0A0041EA0B0152465B46084390
:101C100003D130463946BDE8F08D194652EA01003D
:101C200015D0C8F140025046FFF70CFF04460D46A0
:101C300050465946424600F079F9084301D0012048
:101C400000E00020044345EAE07526432F430A984C
:101C50004FEAD625A0EB08000A304FEA46534FF072
:101C6000000245EA47554FEAD72402D50020014635
:101C7000D1E7010550196141DDE9084500196941C5
:101C8000BDE8F04DA0E72DE9FE4F074681EA0300CD
:101C9000C00F0E46019021F0004123F00044B81A15
:101CA000A14105D23846314617461E460B4602462C
:101CB00023F00040104304D13846314603B0BDE85C
:101CC000F08F350DC5F30A00C3F30A510290401A94
:101CD0000090402868DAC3F3130040F4801B019899
:101CE000924620B10023D2EB030A63EB0B0B009862
:101CF0005946C0F14002504600F018F980460C46A3
:101D000050465946009A00F020F9C0197141EF176A
:101D100085EA11533B4340D0019A52B3009A012AFD
:101D200011DC0022801A4FF0004361EB055103EAF9
:101D300005538018CDE9002341F580114246234622
:101D4000FFF74FFFBAE72E050025401B61EB0601A8
:101D5000401941F58012001852412818A6F50013C9
:101D600043EB020140EAD470294318EB08086441B0
:101D700013E064084FEA38084FF0000244EAC074E8
:101D80004FEA0553801A61EB0301801841F5801179
:101D900049084FEA3000801859414246234603B0B3
:101DA000BDE8F04FFFF710BF01980122400000236B
:101DB000D0EB020263EBE07301984FEAE074381A4B
:101DC00066EB0401EBE783F000435CE781F0004140
:101DD00059E72DE9F04D81EA030404F0004B21F0AE
:101DE000004714464FF0000A23F0004150EA070272
:101DF00020D054EA01021DD0C1F30A550246C1F3B6
:101E00001300C7F30A56C7F3130340F4801143F4D9
:101E10008013A6EB0508101BD64608F2FD3873EBBD
:101E2000010002D308F1010801E092185B41B8F10A
:101E3000000F03DA00200146BDE8F08D00204FF4CA
:101E40008015064607460EE0B2EB040C73EB010C5E
:101E500004D3121B064363EB01032F436D084FEAC3
:101E6000300092185B4150EA050CEDD152EA0300B4
:101E700012D082EA040083EA0105284303D100223C
:101E80004FF0004308E0101B8B4102D201220023D7
:101E900002E06FF0010253101AEB060047EB085105
:101EA00010EB0A0041EB0B01BDE8F04DFFF78CBED3
:101EB000C1F30A52C1F3130140F2FF3341F4801120
:101EC0009A4202DA00200146704740F233439A42B8
:101ED000A2F2334202DC5242FFF7B4BD00F026B852
:101EE00030B5002904DB4FF00044404264EB0101AF
:101EF000002B04DB4FF00044524264EB0303994291
:101F000008BF904230BD0000064C074D06E0E06877
:101F100040F0010394E8070098471034AC42F6D330
:101F2000FEF71AF9E8DE000808DF0008202A04DBC3
:101F3000203A00FA02F1002070479140C2F12003DC
:101F400020FA03F3194390407047202A06DBCB1791
:101F5000203A41FA02F043EAE071704741FA02F395
:101F6000D040C2F12002914008431946704700005A
:101F700000487047E4DE000810B50446FFF7F8FF9C
:101F80000068005D00F0010010BD00002DE9F34F76
:101F90008BB04FF0000801F10C000C464FF0010B24
:101FA00046460DF1080A01906269012101989047A7
:101FB00005002DD0252D2CD0216A8847C0B162693B
:101FC000012101989047216A88470028F7D1411ED6
:101FD00062690198904700E0761CA1690B988847D8
:101FE000216A88470028F7D1E1690B988847DBE729
:101FF000A1690B9888470746A84201D1761CD3E710
:10200000E1690B9888477F1C02D1B8F1000F6FD0AF
:1020100042E1002762693D463946019890472A28E7
:1020200004D162690121019890470125DFF87C9273
:102030006269012101989047A0F130010A290AD272
:102040004F45E5DC07EB870100EB4107303FDFD46C
:1020500045F01005ECE7E90601D46FF000476C2865
:102060000AD04C2814D0682815D06A280DD07428BE
:102070001CD07A281AD01DE062690121019890478E
:102080006C2802D045F0040514E045F002050DE08F
:1020900045F020050AE0626901210198904768280F
:1020A00002D045F0080505E045F4006562690121AC
:1020B00001989047C4E9015765283DD019DC58289C
:1020C00079D00CDC452837D004DC252826D04128DF
:1020D00031D131E046282FD047282CD12CE05B2885
:1020E0007FD0612828D063287BD0642823D159E091
:1020F000CCE06F2847D008DC66281DD067281BD0AD
:10210000692821D06E2816D127E0702844D0732882
:1021100067D0752846D078280DD14CE0A1690B987E
:102120008847054625283FF469AFE1690B98884741
:102130006D1C3FF46AAFAFE023466A466FF00100C2
:102140000B99AFF300809AE045F040006060A8076B
:1021500023464FF0000235D43DE0206800F1040131
:1021600021600068290501D506701DE7290701D502
:10217000068019E7A90704D54FEAE671C0E90061B6
:1021800012E7066010E745F040006060A8072346AC
:102190004FF0080216D41EE040F60E0125EA0100B9
:1021A000606016E045F040006060A80723464FF0ED
:1021B0000A0207D40FE045F040006060A80708D588
:1021C000234610226FF001000B99AFF3008056E018
:1021D00007E0234610226FF001000B99FFF76CFA1D
:1021E0004DE00027B9463B46632802D05B2807D064
:1021F0003DE0E80601D40120A0604FF0010936E07F
:1022000062690121019890475E2804D10127626923
:10221000394601989047216931B90023524642F866
:102220002130491C0829FADBA8B3216969B9C11713
:1022300000EBD1635A110AEB820123F01F03C31A8A
:1022400001200A68984002430A60626901210198EE
:1022500090475D28E8D14FB10020514651F8202029
:10226000D24341F82020401C0828F7DB02AB22466D
:10227000CDF800906FF001000B99AFF300800028BB
:102280000CDA401C08D1BBF1000F05D04FF0FF3035
:102290000DB0BDE8F08FFFE74046F9E7E90701D14F
:1022A00008F1010806444FF0000B7DE6CCCCCC0CC5
:1022B0002DE9F05F8246007800278B4615460AF12B
:1022C0000104B946302801D09DB113E014F8010B88
:1022D0000127782803D0582801D045B10AE00DB174
:1022E000102D07D10027102514F8010B02E0082556
:1022F00000E00A250026B0460EE005FB080005FBBD
:1023000006F1012701EB10461FFA80F8B6F5803F71
:1023100000D3B94614F8010B2946FFF7A3FB0028A8
:10232000EBDABBF1000F05D00FB1641E00E054469C
:10233000CBF80040B9F1000F06D000F085F802217B
:102340000160C81EBDE8F09F48EA0640FAE770B594
:102350008C1810F8015B15F0030201D110F8012B65
:102360002B1106D110F8013B03E010F8016B01F8C6
:10237000016B521EF9D1B3B110F8012B05F00C0519
:102380008A1A0C2D04D0A2EB851203F1020308E097
:1023900010F8015BA2EB0522F7E712F8015B01F8E8
:1023A000015B5B1EF9D5A142D3D3002070BD00B5FF
:1023B000002200F007F8C04380B2010241EA102079
:1023C00080B200BD05E000BF30F8023B891E5BBA59
:1023D0001A440129F8DC11B1007802EB002290B216
:1023E00000EB124000EB104080B27047084400EB55
:1023F000104080B27047010241EA102080B270475D
:102400000FB4054B10B503A9044A029800F0DCF89C
:1024100010BC5DF814FB00008F020008A41500201A
:102420000FB4084B10B504A902AA039800F0CCF829
:10243000044602A9002000F074FC204610BC5DF8A0
:1024400014FB0000232D000800487047A815002049
:1024500002E008C8121F08C1002AFAD1704770476D
:10246000002001E001C1121F002AFBD170470000CB
:102470002DE9FF5FDDE90210020DDDF838B0014300
:102480000FD10F9801244BA3012807D000980F9A71
:10249000C0E90031C0E90242BDE8FF9F6FEA0B01CD
:1024A000F4E7A2F2FF3244F61050424315140F989D
:1024B00001280ED0A5EB0B00401C4FF000043E4E4F
:1024C000DFF8F890B0F1000AA04605DACAF100077B
:1024D00017E0CBF10000F0E7074612E0F80707D05D
:1024E0002246334640464946FFF79BF980468946D7
:1024F0002246334610461946FFF793F904460E4626
:102500007F10002FEAD1DDE90201BAF1000F424647
:102510004B4602DAFFF785F901E0FFF75AFC044663
:102520000E460022264BFFF7DBFC03D84FF0FF30AE
:10253000014607E00022234B20463146FFF7A3FB6C
:10254000FFF7B6FC102409E0002C0ADB0A22002366
:10255000FFF747FA019B30321A55641E50EA010218
:10256000F2D1641C019AC4F1110314440F9A012A98
:1025700009D00122084301D15B450FDD4FF0000275
:1025800005F101050DE0084303D1A3EB0B056D1E1A
:1025900009E000204FF0110B0F9088E701DA0022CC
:1025A0006D1E002A83D000980F99C0E90231C0E95E
:1025B000004571E730000000000024400000F03FBB
:1025C0000000F0430000E03F2DE9FF4F95B00646C4
:1025D0009A468946002521E2252801D01799A6E0D0
:1025E0000024F9492746761C4FF0010803943278FD
:1025F000203A08FA02F0084202D00443761CF6E7BB
:1026000030782A2811D06FF02F023078A0F13001F5
:10261000092916D8039944F0020401EB810102EB69
:1026200041010844761C0390EFE759F8041B03911D
:10263000002903DA484244F40054039044F00204B1
:10264000761C30782E2816D116F8010F44F00404B9
:102650002A280DD06FF02F013078A0F13002092A1E
:1026600009D807EB870201EB42028718761CF3E7D3
:1026700059F8047B761C30786C280FD006DC4C2887
:1026800017D068280DD06A2814D104E0742810D01F
:102690007A280FD10DE044F400140AE044F48014C9
:1026A00001E044F440147178814202D1761C04F5B3
:1026B0008014761C96F800C0BCF1660F10D01ADCAE
:1026C000BCF1580F70D00CDCBCF1000F6DD0BCF128
:1026D000450FF3D0BCF1460FF0D0BCF1470F24D129
:1026E000A4E1BCF1630F40D0BCF1640F74D0BCF125
:1026F000650F1AD19AE1BCF1700F6ED00CDCBCF101
:10270000670FEDD0BCF1690F75D0BCF16E0F12D020
:10271000BCF16F0F09D1B3E0BCF1730F2FD0BCF146
:10272000750F76D0BCF1780F74D017996046524679
:1027300090476D1C70E1C4F30250022809D00328B1
:102740000DD0D9F8001004280DD00D6009F104094E
:1027500062E1D9F80010EA17C1E90052F6E7D9F8AA
:1027600000100D80F2E70D70F0E759F8041B8DF8AA
:10277000001000208DF80100EB46012003E059F81D
:1027800004BB4FF0FF3061074FF0000102D40FE0AF
:1027900008F101018846B94211DA8045F8DB1BF8DF
:1027A00008100029F4D10AE060E03BE108F10101E2
:1027B00088468142FADB1BF808100029F6D10398FD
:1027C0005346A0EB080721463846179A00F091FAC5
:1027D000284400EB080506E00DE049E01BF8010B7A
:1027E000524617999047B8F10108F7D2534621464F
:1027F0003846179A0DE10A21C4F302524FF0000B3C
:102800000091022A07D059F8040BC117032A0AD0F5
:102810000BE024E025E009F1070020F00702F2E8D0
:102820000201914605E000B2C117042A01D140B26D
:10283000C117002906DA0A460021404261EB020175
:102840002D2202E0220504D52B228DF8042001223E
:1028500003E0E20701D02022F7E7904654E00A2186
:1028600000E010214FF0000B00910DE0102008E077
:1028700010204FF0000B44F004040827009003E000
:1028800008204FF0000B0090C4F30252022A05D03A
:1028900059F8040B0021032A08D009E009F10700C8
:1028A00020F00702F2E80201914605E080B2002123
:1028B000042A01D1C0B200214FF00008220723D51D
:1028C000BCF1700F28D0009B83F0100353EA0B0378
:1028D00009D150EA010206D030228DF804208DF88B
:1028E00005C002229046009B83F0080353EA0B03C5
:1028F0000AD150EA010201D1620705D530228DF8D4
:1029000004204FF001087F1EBCF1580F09D02FA200
:102910000C920CAA029211E040228DF804200122B0
:10292000E0E72FA2F4E75B46009AFFF75AF80C9B0A
:102930009B5C029AA2F101020292137050EA01021A
:10294000F1D1029804A9A1EB000000F1200B60076F
:1029500002D524F4803400E001275F4502DDA7EBB7
:102960000B0000E0002000EB0B01009003984144B5
:10297000A0EB01000390E00306D453462146179ACA
:10298000039800F0B6F90544002706E001A8524676
:10299000C05D179990476D1C7F1C4745F6DBE0032F
:1029A0000CD553462146179A039800F0A2F9054426
:1029B00004E030205246179990476D1C0099481E3C
:1029C00000900029F5DC1EE0092801003031323387
:1029D000343536373839616263646566000000005B
:1029E0003031323334353637383941424344454645
:1029F000000000000298029952460078491C02919A
:102A0000179990476D1CBBF10001ABF1010BF1DC94
:102A100050E100F05BF9054406F10106307800282A
:102A20007FF4DAAD19B02846BDE8F08F600700D416
:102A3000062709F1070020F00701F1E80220894686
:102A400000F00043190001D09DA109E0210501D546
:102A50009CA105E0E10701D09BA101E0AFF2840158
:102A600020F000431391BCF1650F11D009DCBCF1DB
:102A7000450F0DD0BCF1460F20D0BCF1470F3ED121
:102A80003EE0BCF1660F19D0BCF1670F7CD137E096
:102A90000021112F01DB112000E0781CCDE900019D
:102AA00004A90CA8FFF7E4FCDDE90D010C9A4FF036
:102AB000000B07F10108109200914CE04FF000402C
:102AC0000097CDE9018004A90CA8FFF7D1FCDDE94E
:102AD0000E20DDE90C314FF0000B90461093009270
:102AE00018B907F1010001EB0008B7EB080003D4A7
:102AF000C0F1FF3B07F10108A8EB0700019043E09C
:102B0000012F00DA01270021112F01DD112000E043
:102B10003846CDE9000104A90CA8FFF7A9FCDDE9BE
:102B20000D010C9A00914FF0000BB846109221074E
:102B30000CD40099414500DA8846B8F1010F05DD53
:102B4000109AA8F10101515C302908D0B84202DA8C
:102B500010F1040F06DA0121CDE9011014E0A8F10B
:102B60000101E9E7002803DC8344A8EB000102E04F
:102B7000411C414500DD8846A0EB0B0000F101003F
:102B800001904FF000400290200705D40198404585
:102B900002DB4FF0FF30019000208DF84B000298CF
:102BA0000DF14B07B0F1004F26D002200C902B20E6
:102BB0000D90029800280CDA404202902D200D90D2
:102BC00007E00A210298FEF7F6FE3031029007F87E
:102BD000011D0C99481E0C900029F2DC0298002877
:102BE000EFD1A7F101010D980870307800F02000B6
:102BF00040F0450007F8020D11A8A0EB070000F116
:102C0000070002901398007800B1012000EB080142
:102C1000019801EBE071029801440398A0EB0100D8
:102C2000A0F101000390E00306D453462146179A11
:102C3000039800F05EF805441398007820B15246DE
:102C40001799904705F10105E00322D55346214627
:102C5000179A039800F04DF805441AE0BBF1000FF5
:102C600007DB0098584504DD1098179910F80B0001
:102C700001E0179930205246904701986D1C401E84
:102C80000BF1010B019004D12E2052461799904769
:102C90006D1CB8F10001A8F10108DFDC05E017F8B0
:102CA000010B5246179990476D1C0299481E0290DD
:102CB0000029F4DC53462146179A0398A9E6000040
:102CC0002D0000002B000000200000002DE9F04145
:102CD0000446002517461E46880405D406E03946FA
:102CE0002020B04705F10105641EF8D52846BDE84F
:102CF000F0812DE9F0410446002590461E46C803A8
:102D000001D5302700E02027880405D506E041469C
:102D10003846B04705F10105641EF8D52846BDE8E0
:102D2000F0810A68531C0B60107070472DE9F04762
:102D30000027DFF8909000280CDA2349D9F800200A
:102D400020F000400968024401EB4101B2EB910F11
:102D500018D8012705460F3020F003060FB9FEF7FB
:102D6000D3F81A4CD4E90002011B891AB1420CD2E3
:102D7000044600680028F5D127B9FEF7C0F8002006
:102D8000FDF7A6FF0020BDE8F08772B11019216899
:102D90000160206000F10808C0F80460D9F8001054
:102DA0003144C9F8001027B105E004F10808666055
:102DB000F4E7FEF7A4F8A8F800500020A8F80200F5
:102DC0004046E0E7901500207CDB0008C01500209D
:102DD0002DE9F0470746894690460026284C294DA4
:102DE0000BE0207838B10422394604F10A0001F0E2
:102DF000E9FC012835D00E34761C28888642F0DBA9
:102E00002149384601F098FCD0B91F48042200211E
:102E1000001D01F0FDFC10B10020BDE8F087002688
:102E2000174C0AE0207830B106224946201D01F0F7
:102E3000C9FC01281AD00E34761C28888642F1DBA2
:102E4000404600F027F80028E7D00D49C0EBC0004D
:102E500001EB40040E3C0422394604F10A0001F063
:102E6000C1FC06224946201D01F0BCFC0748008831
:102E7000E07007480078A070032020700120CCE7A4
:102E8000C035002082DB0008C45D002084DB000820
:102E900086DB0008F0B50546012116480E46164AA5
:102EA00003E0037853B10E30491C13889942F8DDD2
:102EB0001248104B0488002001210DE00670457077
:102EC0000846F0BD5F78012F04D1DF78A74201D812
:102ED0003C4608460E33491C1788B942F2DD0028EB
:102EE000EFD0044AC0EBC00102EB410101F80E6DC6
:102EF0004D70F0BDC035002082DB000884DB000887
:102F00002DE9F04781460F4600253D4C3D4E0BE034
:102F1000207838B10422494604F10A0001F052FC3D
:102F2000012815D00E346D1C30888542F0DB3649FF
:102F3000484601F001FCDFF8C880334D01284FF00E
:102F4000040209D00021281D01F062FCE8BB1DE04D
:102F5000207803284ED350E04946281D01F032FC6A
:102F6000012806D104220021281D01F051FC00B9DE
:102F700000273846FFF78EFF06003CD0C6EBC6019F
:102F800008EB41040E3C042249461DE000271C4C7E
:102F90000BE0207838B10422291D04F10A0001F069
:102FA00011FC0128D4D00E347F1C30888742F0DB1E
:102FB0000020FFF76FFF06001DD0C6EBC60108EB2F
:102FC00041040E3C0422291D00E013E004F10A0034
:102FD00001F008FC06220D49201D01F003FC0C48FD
:102FE0000078A0700B480078E070304600F012F9CD
:102FF000022020700020BDE8F0872046FBE700009B
:10300000C035002082DB0008C45D002088DC000899
:1030100086DB000887DB00082DE9F0470026DFF893
:10302000D480DFF8D490B246344F5DE0B9F8005058
:10303000691C89B2A9F800103A88914201D3A9F815
:1030400000A02F49C5EBC50001EB40042078C8B3B0
:10305000E07820B1401E10F0FF00E07043D16078AE
:1030600001280AD10422274904F10A0001F0AAFB31
:10307000012806D06078012818D010F0FF0F02D088
:1030800031E084F801A004221F4904F10A0001F094
:1030900099FB012817D02078032818D0A07800B316
:1030A000401E10F0FF00A0701BD012E02078032813
:1030B00017D0A078A8B1401E10F0FF00A07010D06B
:1030C000022005E00FE011480088E0700BE00420CA
:1030D000207098F80000E070681CBDE8F04700F030
:1030E00099B884F800A0761C388886429EDBBDE83B
:1030F000F087000087DB00089C15002082DB0008B9
:10310000C0350020C85D00208EDC000884DB00088C
:103110002DE9F04106460025134C00F10E08134F2F
:103120000DE0207848B1012807D0042204F10A01FB
:10313000404601F047FB012806D00E346D1C38884C
:103140008542EEDBBDE8F081062206F10801201D74
:1031500001F048FB06480088E07006480078A0703F
:1031600003202070EEE70000C035002082DB00085D
:1031700084DB000886DB00082DE9F04105460E4699
:103180002A20FFF7D3FD044605F1080106220F4669
:10319000001D01F027FB06221C4904F10A0001F082
:1031A00021FB4FF4C16020824FF4807060820820C0
:1031B000A0820620A0750420E075268304F1240077
:1031C00006223946064601F00DFB05F10E0104F119
:1031D0002A000422054601F005FB06220B4904F1F2
:1031E0001A0001F0FFFA0422094904F1200001F05D
:1031F000F9FA012231462846FFF7EAFD2046FDF79D
:1032000088FE2046BDE8F04100F0DCB95000002007
:10321000C45D002070B505462A20FFF787FD0446EF
:1032200006222349001D01F0DDFA0622214904F19E
:103230000A0001F0D7FA4FF4C16020824FF4807188
:1032400061820820A0820620A0750420E0752183F9
:103250000622184904F11A0001F0C4FA04221649A2
:1032600004F1200001F0BEFA4FF0060265B1002122
:1032700004F1240001F0C4FA1049C5EBC50001EBCC
:1032800040010422091F06E0094904F1240001F06D
:10329000A9FA0949042204F12A0001F0A3FA204600
:1032A000FDF737FE2046BDE8704000F08BB9000006
:1032B00088DC000850000020C45D0020C0350020DC
:1032C000F0B500231D461C4600268A5DA2F1410789
:1032D000192F01D83A4618E0A2F16107192F01D839
:1032E000473A12E0A2F13007092F01D8121D0CE075
:1032F0002B2A04D02F2A04D03D2A04D013E03E22EA
:1033000003E03F2201E000226D1C761C42EA831399
:10331000042EDAD31A0C02701A0A42708370E41C6D
:10332000C01C091D15B1641B15B103E0392CCBD3AA
:10333000002101702046F0BD002070472DE9F047C4
:10334000054608466979072978D200EB020804008F
:1033500075D04FF000094CA100F0CCF8012806D040
:103360004DA1204600F0C6F801286AD072E00E3464
:103370004EA1204602F0A0F8012809D054A1204611
:1033800002F09AF80128264621D0A8F101073CE076
:10339000687940F001005CE052A102F08DF801284C
:1033A00015D13420FFF7C2FC342206F1090168620E
:1033B00000F0B1FF6A6A801E02F80090E880687928
:1033C00040F001006871688840F4007034E04146C4
:1033D000304600F053F90600DED13BE030783B2860
:1033E00008D00D2836D00A2834D02F2806D02B2814
:1033F00004D009E0707820282CD005E03CA1701C96
:1034000002F05AF8012803D0761CBE42E6D321E030
:103410004020FFF78BFC40222146686200F07BFFD2
:103420006A6A801E02F80090E880687940F0010026
:103430006871688840F4006068800BE021E01FE05C
:10344000FFE710342046FEF7DFF9A860687940F006
:10345000020068714146204600F0FCF808B10446BD
:1034600079E720780D280BD160780A2808D168798F
:1034700040F004006871072802D1A01C404500D329
:103480000020BDE8F0870000436F6E74656E742DF8
:10349000547970653A200000436F6E74656E742D28
:1034A0004C656E6774683A20000000006170706CB3
:1034B00069636174696F6E2F782D7777772D666FEA
:1034C000726D2D75726C656E636F646564000000CB
:1034D0006D756C7469706172742F666F726D2D6496
:1034E00061746100626F756E646172793D00000005
:1034F000786D6C0010B5DF220BE004785C4014425C
:1035000001D0002010BDFF222D2B00D1DF22401C56
:10351000491C0B78002BF0D1012010BD0622024976
:10352000001D01F04FB900005000002070B50446A6
:1035300000F12205204E04222049284601F042F9DC
:1035400038BB0422002104F11E0001F061F908B12A
:10355000002070BD28780E21B1EB101F0ED1012084
:103560002071002060715E20A071687800F07F00FB
:10357000E071A8782072E87860720FE0284601F0C8
:10358000EDF830B901212846FFF7BAFC0028E0D059
:10359000061D06223146201D01F024F906220849A5
:1035A00004F10A0001F01EF9082020822046FDF7F0
:1035B000B0FC012070BD000088DC00088EDC000833
:1035C0005000002070B500282AD0A0F10806154C44
:1035D0000025FDF799FC09E025462468206880074E
:1035E00003D0FDF78CFC022010E064B1B442F3D1AB
:1035F0000D4861680B4B0268511A01609C4209D169
:103600000020606008E0FDF77AFC0120BDE8704012
:10361000FDF75EBB20682860BDE87040FDF76FBC19
:1036200070BD0000C01500209015002010B50346A5
:10363000074C084600224FEA036301464FEA400068
:10364000594000D560405B00521C082AF5D310BDDC
:10365000B71DC1040246491E06E003780D2B02D1B6
:1036600043780A2B02D0401C8842F6D3904201D006
:10367000884201D100207047801C70470246491ED5
:1036800007E003783B2B0CD00D2B08D00A2B06D07B
:10369000401C8842F5D3904201D0884205D10020D9
:1036A00070474378202BF6D0F2E7801C70470178F2
:1036B0004278090641EA02418278C07841EA022153
:1036C00008437047392803D920F02000373800E03C
:1036D0003038C0B270470120704700002DE9F0413A
:1036E000067907460D46102E23D2DFE806F00808BB
:1036F0000A0C12121416181A1C220E1E200824A4DA
:1037000018E026A416E028A414E0FFF715FE040034
:1037100010D12CA40EE02EA40CE030A40AE033A4B7
:1037200008E035A406E037A404E03AA402E041A48E
:1037300000E046A44CA1284601F0A6FE804628449D
:1037400054A101F0A1FE804405EB0800214601F0E0
:103750009BFE00EB0804012E15D00C2E13D0F86947
:1037600048B128194FA101F08FFE04442919F869C6
:1037700002F0D0FB044428194EA101F085FE20443C
:1037800080B2BDE8F081281950A101F07DFEF1E77B
:10379000746578742F68746D6C0D0A0074657874A4
:1037A0002F6373730D0A00006170706C696361743C
:1037B000696F6E2F782D6A617661736372697074B8
:1037C0000D0A0000746578742F786D6C0D0A000086
:1037D000696D6167652F6769660D0A00696D6167CC
:1037E000652F6A7065670D0A00000000696D6167EA
:1037F000652F626D700D0A00696D6167652F706ECF
:10380000670D0A00696D6167652F782D69636F6EBA
:103810000D0A00006170706C69636174696F6E2FCE
:10382000782D73696C7665726C696768742D617048
:10383000700D0A006170706C69636174696F6E2F3E
:1038400078616D6C2B786D6C0D0A00006170706C86
:1038500069636174696F6E2F6F637465742D73741F
:103860007265616D0D0A0000485454502F312E319D
:1038700020323030204F4B0D0A5365727665723A14
:10388000204B65696C2D455745422F322E310D0A6C
:1038900000000000436F6E74656E742D547970657E
:1038A0003A2000004C6173742D4D6F646966696540
:1038B000643A2000436F6E6E656374696F6E3A20E0
:1038C000636C6F73650D0A0D0A0000004361636845
:1038D000652D436F6E74726F6C3A206E6F2D63614D
:1038E0006368650D0A0000002DE9F0414FF49877F8
:1038F00004460E46B94233D0A6F58070913831D0D7
:10390000032831D027A1204601F0BEFD0546204402
:103910002CA101F0B9FD0544BE4217D060192FA1BA
:1039200001F0B2FD0544A6F5807091380ED1601902
:1039300031A101F0A9FD05446019384901F0A4FD49
:103940000544601936A101F09FFD0544601935A1B9
:1039500001F09AFD0544BE4208D1A8B2BDE8F0814D
:1039600036A1D0E73CA1CEE742A1CCE76019484997
:1039700001F08AFDA6F580760544913E0DD0032E18
:103980000DD04449601901F07FFD0544601942499A
:1039900001F07AFD284480B2E0E74049F2E740496F
:1039A000F0E70000485454502F312E31203530318B
:1039B000204E6F7420496D706C656D656E74656422
:1039C0000D0A00005365727665723A204B65696C8A
:1039D0002D455745422F322E310D0A00436F6E742C
:1039E000656E742D747970653A20746578742F68EB
:1039F000746D6C0D0A0000005757572D417574689F
:103A0000656E7469636174653A204261736963200D
:103A10007265616C6D3D2022000000009CDB000897
:103A2000220D0A00436F6E6E656374696F6E3A20F3
:103A3000636C6F73650D0A0D0A0000004854545002
:103A40002F312E3120333034204E6F74204D6F646F
:103A500069666965640D0A00485454502F312E314F
:103A60002034303120556E617574686F72697A65E3
:103A7000640D0A00485454502F312E312034303414
:103A8000204E6F7420466F756E640D0A00000000B2
:103A90009EDD00084BDD0008D9DD000892DC00083F
:103AA000F0DC0008704700207047000070B5044645
:103AB0000078202804D1002070BD641C2E2805D079
:103AC000207830F02001F8D10B2070BD0A4E00257F
:103AD00005EB450006EB4001204601F0EDFC012816
:103AE00003D06D1C102DF3D3EEE705EB450006EB7C
:103AF0004000407970BD000020DC000800207047C5
:103B0000002070470020704704480549007800EB0A
:103B1000400001EB00101A38704700007C150020AF
:103B2000C43700202DE9F0410126044690460D4699
:103B300000271BE015494968A14201D82F7020E0F9
:103B4000252803D02B280DD120200BE014F8010FDD
:103B5000FFF7B8FD0001287014F8010FFFF7B2FD60
:103B600029780843641C05F8010B761C2078262868
:103B700003D0202801D94645DCD32F702078262891
:103B800002D00020BDE8F081601CFBE77C1500201E
:103B900070B50025044605704088400602D5E06AED
:103BA000FFF780FF6088000602D5A06AFFF77AFF62
:103BB0006088C00504D5002211460320FCF751FDA2
:103BC0006088000504D5002211460420FCF749FD59
:103BD000206A10B1FFF7F6FC2562606A10B1FFF7AA
:103BE000F1FC6562E5602561A582658070BD00001D
:103BF0002DE9F05F044615461E4600208246884A9D
:103C0000884B17E000EB400702EB071700F10100BB
:103C10007F78A7420ED110F0FF0736D007EB4700A0
:103C200002EB0014303C06292FD2DFE801F0071622
:103C30001212181F1F78B842E4DB26E0207808B97A
:103C40000220207031462846FFF745FD00281DD090
:103C5000E3E02046FFF79CFFDFE003204CE0A18A71
:103C6000206908442061A4F814A0D6E0052E0CD9E0
:103C70002078DFF8B4914FF0090B05EB0608032814
:103C800006D008287ED009287DD00020BDE8F09F0E
:103C900066A1284601F010FC01280DD065A1284638
:103CA00001F00AFC012829D064A1284601F004FC97
:103CB000012845D00A201FE06088324640F4806029
:103CC00060802946204600F059F92078072814D052
:103CD00020223F21A81D00F011FB08B180F800A0B0
:103CE000AD1D2846FFF7E2FE20712946204600F070
:103CF000A9F80120E06065E020708EE03246294698
:103D0000204600F03BF92078072876D020223F217A
:103D1000681D00F0F3FA060008D089F80070701CE6
:103D2000C9F80480FCF7F6FB86F800A06D1D284654
:103D3000FFF7BCFE20712946204600F083F835E0ED
:103D400032462946204600F019F92078072864D029
:103D500084F805A0324629462046FFF7EFFA060010
:103D60004FF0080A0BD0608880050AD489F80070EB
:103D700031462046C9F8048000F048FA08B984F8B2
:103D800000A001E020E039E0A81DFFF78FFE2071C0
:103D9000A91D204600F056F8207808283DD06088FC
:103DA000800503D584F800B03EB328E06088C007E2
:103DB00008D07820FEF7BAFF2062204601F0F8F81C
:103DC000052099E7042097E7324629462046FFF769
:103DD000B5FA060021D06088800502D584F800B0CD
:103DE0000DE089F8007031462046C9F8048000F0E3
:103DF0000DFA00283FF44AAFD8E70EE02E4689F8C6
:103E00000070A8EB0601C9F80480A9F80210314639
:103E1000204600F04FF90028C8D1012036E7000005
:103E2000C437002097DB00087C150020484541443A
:103E3000202F0000474554202F000000504F5354BE
:103E4000202F00002DE9F0410446087800270D4698
:103E5000202801D141A501277820FEF767FFDFF870
:103E6000088106460020295C3154295C31B12029A3
:103E700004D00D2902D0401C7728F4D300213154FE
:103E80003046FFF73DFE10B36188CA0704D122799E
:103E9000012A0BD00C2A09D041F040016180E06278
:103EA0004FF00040E060C80704D04CE041F08101D1
:103EB000618036E03046FFF721FE30B1E169814292
:103EC00003D1618841F010016180E0613BE0304640
:103ED00001F0E5FA02460020414602E0934205D097
:103EE000401C51F83030002BF8D126E02BB361880C
:103EF000CA0704D12279012A0DD00C2A0BD008EB75
:103F0000C000CB074268E262C2684068A2EB0000D2
:103F1000E06008D017E041F0010108EBC0006180CB
:103F20004068A0620FE01148E26903689A4202D13A
:103F300041F0100161800068C7E7012F08D0608858
:103F400040F0040060803046BDE8F041FFF73ABB26
:103F5000012007A52071002784E70000696E6465D1
:103F6000782E68746D0000009CDA0008DC7400088C
:103F7000696E6465782E6367690000002DE9F0477B
:103F800006464088072592460F46400500D5012584
:103F90003548007808B925F001054FF000080C46B7
:103FA0004FF00709C6F81C8055E0E80705D02FA19F
:103FB0002046FFF79FFA012810D0A80705D531A1A8
:103FC0002046FFF797FA012825D068073DD532A192
:103FD0002046FFF78FFA012830D036E0153425F05F
:103FE000010521462046FFF76BF93049204601F0D4
:103FF00063FA01280CD12D48FDF72CFB04442078EE
:104000003A2805D1601C04462949FDF72BFBE0B195
:1040100086F8009019E0113425F0020500203218CE
:10402000215C9175215C2C2904D00D2902D0401C03
:104030000528F4D3304480F8168006E0133425F0C8
:104040000405204600F076F9F06107EB0A012046EE
:10405000FFF700FB04460CB1002DA6D1E80701D004
:1040600086F80090BDE8F08798DB00084175746819
:104070006F72697A6174696F6E3A20426173696325
:10408000200000004163636570742D4C616E67759C
:104090006167653A2000000049662D4D6F646966CE
:1040A0006965642D53696E63653A2000B0DB0008D2
:1040B000AC1500202DE9F04105464079494E0C46EB
:1040C000C00652D47088E988884279D9421A2146BC
:1040D000686A01F0ABF9002870D0E988001D0C185F
:1040E0007ED041A12046FFF705FA01280FD11534F3
:1040F00027460AE042A1384601F0DEF901280DD03A
:1041000038467168FFF7BAFA0746002FF2D1204609
:104110007168FFF79FFAD0B10446E2E70A370A2236
:104120002221384600F0EAF80028F0D00021017082
:10413000C01B82B239460120FCF793FA688840F42C
:1041400080706880687940F020006871DFE720782F
:104150000D2845D160780A2842D16879A41C40F026
:10416000100068717068A0423AD96979C1F30110F2
:10417000032835D17088AA684906A2EB0001A9601E
:104180000FD4E98888421CD9421A2146686A01F096
:104190004DF9B0B1801E001B82B221460220FCF70F
:1041A00060FAA86804281BD2002211460320FCF7FD
:1041B00058FA688820F4807068800120BDE8F0819A
:1041C0000EE0EA88A968706802F108039942E2D219
:1041D000511A401A6979083841F040016971DAE7EB
:1041E0000020EBE77C150020436F6E74656E742D24
:1041F000446973706F736974696F6E3A20000000D0
:1042000066696C656E616D653D2200002DE9F041C7
:10421000384D04460F4668684FF00006A0EB0100D9
:1042200082B26A806188607909051CD5010706D4CD
:10423000A16891420ED940F00800607126612069A2
:1042400010442061A168884204D239460520FCF759
:1042500008FA40E039460420FCF703FA608820F4AD
:104260000060608043E000071FD4A068904204D83B
:1042700039460020FCF7F5F93AE01F4980B2E080AA
:104280000A68B0EB920F01D99008E08080B2FEF787
:104290004DFD60626A88394600F0A4FA68882061A2
:1042A000607940F00800607115E0E0882169814282
:1042B0000AD2401A824200D21046626A531802465D
:1042C0003946184600F08EFA698820690844206152
:1042D000A168884202D20020BDE8F081E288002077
:1042E000616AFCF7BEF9606AFFF76CF966622661E5
:1042F0000120F1E77C1500207CDB000805E09342FB
:1043000007D00D2B05D023B1401C03788B42F6D18A
:1043100070470020704710B5002307E00C783CB1CF
:104320005B1C04700A2C03D0401C491C9342F5D33B
:1043300098B210BD2DE9F04704460C30FDF764FA41
:10434000A0F2B275872D29D840F26D106843691C20
:10435000DFF8848000EB9107002604F1080900BF14
:1043600008EB8601484601F0A7F8012802D0761C28
:104370000C2EF5D30C2E11D017484C30012E30F8EE
:104380001600074404D9A807B0F1004000D17F1CF3
:10439000601DFDF739FA401E1E2802D90020BDE835
:1043A000F0873D1804F11100FDF72EFA05EB4501E9
:1043B00000EBC10504F11400FDF726FAC5EB051169
:1043C00000EB810504F11700FDF71EFAC5EB05119E
:1043D00000EB8100E3E70000BCDB000810B5FCF750
:1043E00093FD00F06DF8074800213C2281800649CA
:1043F0000988C1800549064800F0F4F9BDE810407D
:10440000FCF767BC9415002080DB00083CDB00084B
:10441000C45D002030B5002106480B460124064A41
:1044200003E0037044700E30491C1588A942F8DB84
:1044300030BD0000C035002082DB000810B5FCF75D
:1044400063FDFCF777FCFFF7E5FF044800210160FE
:104450004160BDE81040FCF752BD00008815002007
:104460002DE9F0410126114C0025114F19E0E560BE
:104470002561A582658010482562656202880D4B22
:104480000021052001F0A8F860700121217030B1F1
:104490000A49098801F0E4F8012800D12570303478
:1044A000761C38788642E2DDBDE8F081C437002012
:1044B00097DB0008F13B000894DB00089ADB00085A
:1044C0000649054809684218121F00210260116060
:1044D0004160034801607047C01500207CDB000884
:1044E0009015002010B5074A0321002001F02AFC96
:1044F00005490028087004D0BDE81040892101F06A
:1045000045BC10BD294800088415002003480278E6
:104510002C2042430021024800F072B989DB0008D8
:10452000643600200448007800EB4000820000213F
:10453000024800F065B9000088DB00084C36002016
:10454000F8B504460F46808AFDF755FF05462188D9
:104550000E30814245D3A07C0421B1EB101F40D125
:10456000264907EB870001EB800104F122000422B9
:10457000064600F027F958BB04222149304600F0D6
:1045800021F928BB6FBB31780E223046B2EB111FE8
:1045900004D1FCF7BEFB012815D00EE00422314601
:1045A000684600F01FF915480099026880684A4083
:1045B000024202D10843401C05D02046FEF7AEFF60
:1045C00078B1E07E02E0E07E022801D0112808D117
:1045D00004F1120000F016F818B9208B30F0C0007A
:1045E00001D00020F8BDA07C0007800E00F10E0174
:1045F0006180281A20800120F8BD0000C45D0020E1
:104600008EDC000801780907890EFDF7D0BE000096
:104610002DE9F041214C8046214F2078C0070AD077
:104620002049404600F088F840BB0422FF21404664
:1046300000F0EEF810BB1B4D20781435800704D530
:104640002946404600F078F800BB164E2078283600
:10465000400704D53146404600F06EF8D0B92078C6
:10466000800702D52078000710D42078400702D5B3
:104670002078C0060ED42078C00704D000203870FF
:104680000848BDE8F0812078800703D50120387004
:104690002846F6E7022038703046F2E778DB00085B
:1046A0009E150020C45D00202DE9F0410446DDF890
:1046B00018800F461646012A08D0022E06D0062E74
:1046C00004D0112E02D00020BDE8F081194D452103
:1046D0006888401C68802088A174143080B2E3741C
:1046E000FDF789FEA0826888FDF785FEE082002044
:1046F000208384F81A80E676A0833846FFF788FF87
:104700000146042204F11E0000F06CF80422394630
:1047100004F1220000F066F804F11200FFF772FFC6
:10472000A08320882230208029782046BDE8F041EF
:10473000FCF7EABA9E15002018B50C460146042283
:10474000684600F04FF8206800994840A168084288
:1047500001D0002018BD012018BD000038B5044666
:1047600001460422684600F03DF806488268009839
:104770000243521C01D0002038BD02492046FFF7F9
:10478000DBFF38BDC45D00200C4800218278012A7F
:1047900004D0017080F80110FCF7A9BA81708188FB
:1047A0000122491C8BB28380C1888B4204D1044B07
:1047B0001B881944C18042700270EDE794150020F7
:1047C00080DB000810B508E003780C78A34201D024
:1047D000002010BD401C491C521E002AF4D10120AB
:1047E00010BD000030B5134606E000BF054611F8C5
:1047F000014B401C2C705B1E002BF7D1104630BDC6
:1048000003E000BF00F8011B521E002AFAD17047D6
:104810003AB103788B4201D000207047401C521EF1
:10482000F6E70120704700002DE9FF4FDFF800A1F7
:1048300081B01C469AF800100E9F814213D1892A3C
:1048400011D1322F0FD3608841F2010188420AD181
:10485000A0884FF4807B584505D1E08818B920899D
:1048600008B9608918B1002005B0BDE8F08F282094
:10487000FEF75CFA064604F10D0000250278417847
:1048800012014139A2F5826211437155801C6D1CE1
:10489000102DF3D3701910F8010C08B1202801D1A4
:1048A0006D1EF7D14FF0000906F1140006F80590CF
:1048B0002049804600F00DFE6A1C41463046FFF755
:1048C00081FF01282ED10C37B8B2804601F032FAB0
:1048D00005462088288085206880A5F80490A5F8E2
:1048E00006B0A5F80890A5F80A90277B04F10C0102
:1048F000BA1D05F10C00FFF775FF1237E819082201
:104900000D49FFF76FFF0837E81904220B49FFF73D
:1049100069FFCDF800802B4689229AF800000299A1
:1049200001F072FA3046FEF74DFE01209CE70000D0
:10493000841500204000002080DC0008C45D0020B9
:104940007047000070B501882A2941D3418A4FF48D
:10495000807399423CD1818A082939D1817D062909
:1049600036D1C17D042933D1028B00F11204B2F596
:10497000806F2DD00ADC4FF4007500F12A009A42B6
:1049800017D0AA4224D10422124909E024304FF45E
:104990001065B2F5006F0FD0AA4219D106220E4958
:1049A000FFF710FF002813D02046BDE87040FEF747
:1049B000AFBB0422074901E006220749FFF702FFC7
:1049C000002805D029462046BDE87040FEF7D4BB3C
:1049D00070BD0000C45D00205000002070472DE92C
:1049E000F84304464188001D0E18258830462946A4
:1049F000FDF7DDFC28B9307848B3082801D170787C
:104A000010B10020BDE8F88305F12200FEF78EF911
:104A100000F12607002139707970018580462A1F30
:104A2000311D381DFFF7DEFE29463846FDF7BFFC75
:104A30007880A8F80050802300934046002301228C
:104A400004F11E01FFF730FE4046FEF7BBFD0120DA
:104A5000D8E700002DE9F05F428800F1040B02EB7B
:104A60000B050646287B6FF0030101EA900014282D
:104A70007ED3318881427BD30244081A1FFA80F822
:104A8000728006F11201284600F028FE5FEA000A53
:104A900006F11E076DD000220421381DFDF792FC9F
:104AA000024604213846FDF78DFC0146F07EFDF7F5
:104AB0009DFC01463088FDF799FC02463188284666
:104AC000FDF780FCC0430004000C51D10AEB4A0101
:104AD00001EBCA00F9494FF0100901EB800414F80A
:104AE0002C0D0B2879D2DFE800F04444C4F9F7F626
:104AF000F5F4F3F20600687B410704D5A07840F096
:104B00000800A070CEE1810713D5C00630D5281D5E
:104B1000FEF7CDFDA169401C884229D105F10800AE
:104B2000FEF7C5FD6169884222D100BF84F822905A
:104B3000B0E1D4E9041291423FD0C00618D505F186
:104B400008000746FEF7B3FD01466069814215D1B2
:104B500020610021204601F0A3F8A078221D40F03A
:104B60000800A070A76A238904215046B84701E0D5
:104B70007DE0CCE0A07820F008001DE0A0784007A0
:104B80001BD53846FEF793FD01466069001F814240
:104B900013D12061676A042238883918363107F149
:104BA0003A00FFF71FFE3A21384600F051FA042080
:104BB0003880A07820F00400A070281DFEF777FD53
:104BC000A16988420AD0281DFEF771FDA169401C29
:104BD0008842ABD1A08BE083A8E76AE1A178B8F165
:104BE000000F41F00800A0700DD0E08958B1718825
:104BF000A66A01EB0B02434605215046B047A16966
:104C000001EB0800A061687BC00717D0D4E904015C
:104C1000884213D1221DA56A238902215046A84744
:104C2000A069401CA0616069401C6061112084F88B
:104C30002200504600F068FF08211BE1A178B8F17E
:104C4000000F21F00800A0700FD084F82290607847
:104C5000000707D5E089404502D9A0EB080000E035
:104C60000020E081504600F04FFFA08BE083BDE8BC
:104C7000F09F687B410701D50221FBE0C10601D40A
:104C8000800704D43946284600F0CAFFF4E7221D05
:104C9000A66A238900215046B047C0B32946504632
:104CA00000F078FE00F0D2FC2061401C6061281DFD
:104CB000FEF7FDFC401CA061122084F82200504643
:104CC00000F022FFA07820F00100A07053E0E6E0A1
:104CD000BDE0A3E08FE062E036E0FFE7687B4107DC
:104CE0007AD4C10714D005F10800FEF7E0FC616931
:104CF0008842BCD1281DFEF7DAFC401CA061606927
:104D0000206184F82290504600F0FEFE11E040E061
:104D1000C10616D505F10800FEF7C9FC6169884295
:104D2000A5D1281DFEF7C3FCA16988429FD1606907
:104D30002061221DA56A238901215046A8470A2126
:104D400098E0800793D424E0687B410744D412267E
:104D500036EA000111D080071BD52946504600F0E5
:104D600019FE281DFEF7A3FC401CA06184F82260F8
:104D7000504600F0C9FE03217CE005F10800FEF773
:104D800096FC61698842B4D12946504600F002FE83
:104D9000B0E739462846BDE8F05F00F041BF687BC8
:104DA00041077FD4C10718D005F108000646FEF779
:104DB0007EFC6169884205D03046FEF778FC2169A7
:104DC000884296D1281DFEF772FC404400F1010094
:104DD000A061606920611AE064E0C0067FF547AF1A
:104DE00005F10800FEF763FC01466069814297D136
:104DF000062120613EE0687B410753D4C0073FF4A1
:104E000036AF281DFEF753FC4044401CA06184F8D7
:104E10002290504600F078FE09212BE0687B410784
:104E200040D4C10609D505F10800FEF740FC014653
:104E300060698142A7D12061EEE7C007DFD0281D5D
:104E4000FEF735FC404400F10100A0616EE6687B8E
:104E5000410727D4C10612D505F10800FEF727FC4B
:104E60000146606981428ED1206160780221C007CD
:104E700000D101212046BDE8F05F00F01BBFC00754
:104E8000BDD0281DFEF713FC4044401CA06111203A
:104E900084F822005046BDE8F05F00F035BE687B24
:104EA0004107CAD5221DA56A238903215046A84778
:104EB000DBE7BDE8F05F0520FBF70ABF64360020A2
:104EC0002DE9F84305464188001D0C18A088FDF720
:104ED00092FA082848D30127284EDFF8A48047E03B
:104EE0003078022842D16088FDF785FA71888842BF
:104EF0003CD117F0FF0737D0717905F11E098907FA
:104F000024D5E08810B30022042105F12200FDF72A
:104F100059FA024604214846FDF754FA0146E87E54
:104F2000FDF764FA8046A088FDF765FA4146FDF773
:104F30005DFA8046A088FDF75EFA014642462046AB
:104F4000FDF740FAC0430004000C0DD12088FDF7A6
:104F500052FA024628884946083883B20093B56859
:104F600004F108033846A847BDE8F8830C367F1CD7
:104F700098F800008742B3DDF6E700004C360020C9
:104F800088DB0008084A30B4D2E90034591C01F02B
:104F90001F01A14205D0054C44F82300116030BC2C
:104FA000704730BCFEF70EBB88150020445D002022
:104FB00070B5044640882E260025000623D57822A9
:104FC000216AA06AFEF76FFD0028206A0ED00078E3
:104FD0002328F4D020790C2814D1206AFCF73AFB5E
:104FE000216A421E8A5C0A2A04D00AE00670206AFE
:104FF0004570EFE70246921E401E8A5C0D2A00D1E2
:10500000401E0D5470BDA06A226A0178012905D0A6
:10501000022905D0032905D0167070BD742102E065
:10502000632100E069211170236A20220221401CC3
:105030005A700278042A06D3236A4E1C401C5A5424
:105040003146772EF5D3226A5554A06270BD000018
:1050500070B50180A0F108040F31606821F00305EC
:10506000A8420CD9FBF750FF6068411B0448026856
:10507000511A01606560BDE87040FBF740BF70BD2C
:105080009015002070B5FFF75BFC274800780128D9
:1050900001D1FDF7C1FF2549D1E90020824241D06D
:1050A000234A52F82040401C00F01F004860208A2C
:1050B000082806D0B0F5C16F2FD12046FFF742FC7B
:1050C0002BE000212046FFF73BFA10B304F11E004D
:1050D000042200210546FFF79BFB28B9012204F1B9
:1050E0000A012846FDF774FEE07E012806D002285A
:1050F00008D006280ED011280FD107E02046FFF770
:105100006EFC0AE02046FFF769FC06E02046FBF74C
:10511000F7FD02E02046FBF7F5FD2046BDE87040B4
:10512000FEF750BA70BD00009515002088150020CC
:10513000445D00202DE9F05F002505274FF0010BAD
:10514000A946DFF8D882B64E3DE198F800103278D3
:105150004046914202D9594680F800B0C9B2B148E0
:1051600001EB410100EB011414F8300D0B2811D2B2
:10517000DFE800F0061006101180FEFD1010FC00A4
:10518000607800F04DFA0228F1D2A74960780988CA
:1051900000F066FA11E16088410702D54FF4CA7544
:1051A00028E1C10602D54FF4987523E1A18A0029B0
:1051B000F0D1D4E903128A4216D3C1070DD04106BB
:1051C00005D520F040006080E06AFEF76BFC2046C9
:1051D000FFF7EEFE2770BDE8F09F607800F0B2F9AF
:1051E0002046FEF7D5FCD2E0607800F0C7FA05460D
:1051F00000F0EAF982466088002681070AD440F070
:105200000200608051462046FEF768FA0646608834
:1052100040057ED461880AEB0600A5EB0605490629
:1052200015D5E36A0146AAB21846FEF76BFC07469D
:10523000A8420AD2E06AFEF735FC608820F0400000
:105240006080C4F80CB0C4F82C90B8B20AE0D4E97D
:105250000321521AAA4200D92A46E36A1944FFF7E9
:10526000C1FA80B2A082304482B26078514600F028
:10527000C9FB8CE0206A0078632815D004DC232861
:1052800077D02E2804D1A8E7692873D074280BD0D2
:10529000607800F02BF92046FEF77AFC98F80000C1
:1052A000401C88F8000096E7607800F067FA064630
:1052B00000F08AF9074660880025810717D440F07E
:1052C0000200608039462046FEF708FA05460EE0E7
:1052D000701B216A82B2891C7819FFF71CF80544FB
:1052E00005F17800B0424AD82046FFF761FE206AF7
:1052F00000787428ECD0632837D1DFF820A104F1BE
:10530000080B0AF1040A6088000701D4C4F8089069
:1053100000E079E098F800108AF80010701B82B263
:10532000206A7919801C5B46FBF768FAC0F30D010F
:105330000D440104618802D541F0080101E021F02B
:105340000801618040041AD405F1F000B04216D87B
:105350000807E3D42046FFF72BFE206A0078632875
:10536000D1D0206A00787428B2D004E040E03CE05C
:1053700021E01CE011E0608840F020006080AAB2CB
:10538000A2826078394600F03DFB0620207098F834
:105390000010491C88F800101DE7216A2046891C6E
:1053A000FEF750FD0420C4F81090207013E720464B
:1053B000FFF7FEFD5EE7A08A50B198F80010491C87
:1053C00088F800106D1C30788542FFF4BEAE02E70D
:1053D0002770608810F0280F02D12046FFF7E8FD03
:1053E000608820F020006080F5E640F2911501E031
:1053F00040F2F515607800F0C1F900F0E5F882465A
:105400002946FEF771FA06466078B2B2514600F0BE
:10541000F9FA607800F096F83DE700007815002072
:1054200097DB0008C43700209ADB000870B506003F
:105430000C4615461CD019E060782D2814D1207830
:105440002D2803D0A0782D2808D00DE03146A01CCF
:1054500000F032F8012807D1204670BD3146E01C2B
:1054600000F02AF8012805D0A41CAD1E012DE3D8B8
:10547000002070BD601C70BD0A0E02700A0C4270E4
:105480000A0A8270C170704700220B7803700B7893
:105490001BB1401C491C521CF7E71046704710B561
:1054A0000446002004E001461046FEF7BFF8641CE5
:1054B0002278002AF7D110BD06E00378934201D08C
:1054C00000207047401C491C0A78002AF5D10120B1
:1054D00070470A78A2F16103192B00D8203A0270B4
:1054E000002A02D0491C401CF3E7704710B510B3E6
:1054F0001249097888421ED800EB4001104A01EB9E
:10550000C00102EB810414F82C1D0B2913D2DFE833
:1055100001F0120A060C0C0C0C0C0C060C000121FC
:10552000204600F0C7FB012010BD042184F82210A2
:1055300000F0EAFAF3E7002010BD000089DB000864
:105540006436002010B578B31D490978884234D8F4
:1055500000EB40011B4A01EBC00102EB8104112169
:1055600014F82C2D921E092A27D2DFE802F011052B
:10557000111B1B1B1B1B130084F822102169491CE3
:1055800021616169491C13E0204600F093FB09E0AA
:105590000121F9E7D4E904239A4206D0A07840F02B
:1055A0000100A070012010BD07E084F82210591CF2
:1055B000616100F0A9FA0521E6E70020F3E70000A9
:1055C00089DB00086436002010B53630FDF7AEFBED
:1055D000362141803A3010BD2DE9F0410F2804D822
:1055E0001BB101250C4C0D4E06E00020BDE8F081FA
:1055F000277847B12C346D1C3778BD42F8DD042084
:10560000FBF766FBF1E7012626706070E170A3628C
:10561000A283E8B2EAE700006436002089DB0008D4
:1056200018B108490978884201D9FF20704700EB7A
:10563000400101EBC000044901EB800010F82C0C84
:105640007047000089DB00086436002003484FF6ED
:10565000FF71008801EB00407047000098150020A2
:1056600010B5C0B11B4A1278904214D899B100EB22
:10567000400202EBC000184A02EB80002C3842784E
:10568000D20708D0826A32B10278012A05D0022AF4
:1056900003D0092A01D0002010BD0222027000228E
:1056A00082700281418140F2B451818141F21C112A
:1056B000C181511EC0E90421826180F8222080F856
:1056C0002320426204220021001DFFF799F80120E7
:1056D00010BD000089DB0008643600202DE9F04190
:1056E00005460127234C01F10C08234E17E02078D2
:1056F000022812D02888FCF77EFE218988420CD12E
:105700006888FCF778FE6189884206D10422414608
:10571000201DFFF757F8012809D02C347F1C307862
:105720008742E4DD687B10F0150F20D102E0F8B26B
:10573000BDE8F08180071AD501270E4C14E02078CF
:1057400002280FD16888FCF756FE6189884209D18A
:1057500004224146201DFFF745F82888FCF74BFE40
:105760002081E4E72C347F1C30788742E7DD00207D
:10577000DEE700006436002089DB000800EB400112
:1057800001EBC000054901EB800040F2B45130F854
:10579000200C884200D9084680B270476436002049
:1057A0002DE9F0477448754B007898B1754A00218F
:1057B000734814780BE0028C0AB1521E0284012C4B
:1057C00003D1C28B0AB1521EC2832C30491C1A78F5
:1057D0009142F0DB00264FF011084FF0020A6A4FA9
:1057E0006A4D9946A8E0297899F80000814201D9CC
:1057F000012028702878624900EB400202EBC000CB
:1058000001EB800414F82C0D0B2877D2DFE800F0B0
:105810009090905959778677776C0600D4E90420E8
:10582000A178A0EB0200C90700D038B1E18B91B19B
:1058300000287DD0208C00287AD120E0A07820F0AC
:105840000100A07084F822806069401C60612878A3
:1058500000F05AF911E084F822806069401C606110
:10586000287800F051F9A078221D40F00800A070BF
:10587000A66A238902212878B047052175E094F8AB
:105880002300A8B104F11C04401EE0714FF0180081
:10589000A071A1684FF0000328780A88164600F02E
:1058A00045F9A06806803888A080208860805FE085
:1058B0000021204600F0F4F9A07840F00800A07024
:1058C00042E0208CD0B994F82300E0B3401E84F865
:1058D0002300287800F018F921783888032901D0AE
:1058E0002B480088208443E0208C38B960785146EA
:1058F000C00700D10121204600F0DCF918E0208C1F
:10590000B0B994F82300F0B1401E84F8230084F865
:105910002280287800F0F8F83888E3E7208C38B93E
:1059200094F8230078B1401E84F82300388820843E
:105930002878401C2870761C99F800108E42FFF4DD
:1059400052AFBDE8F087FFE7042084F822002878F2
:1059500000F0DAF8221DA66A238903212878B047CF
:1059600060785146C00700D10121204600F0A2F91D
:105970002878401C2870E4E79415002089DB000893
:1059800064360020951500208CDB0008701500207F
:1059900090DB0008F0B50A7B6FF0030303EA920482
:1059A000143C2BD01431002240F2B45324E08D5C1F
:1059B000002D23D0012D02D0022D18D101E0521C60
:1059C0001AE08E187578042D11D100EB40050C4FAC
:1059D00005EBC005768807EB85052C3D76BA9E421F
:1059E00000D91E46AE81AE7846F00206AE708D1824
:1059F0006D78002D02D02A44A242D8D3F0BD000019
:105A0000643600202DE9F047A1F13A060746708878
:105A10001546362802D00020BDE8F087F7B3364897
:105A2000007887424CD807EB4700344900EBC700A9
:105A300001EB800414F82C0D0A2841D1D4E904109C
:105A400081423DD155B3A189A94200D20D462844D7
:105A5000606105F136013046FFF7FAFA314620461B
:105A600000F01EF960784FF0180A40072CD5042D7D
:105A70002AD9A07840F00400A0703A20FDF756F92A
:105A800080467119363104223A30FEF7ABFE102001
:105A900084F822000023281F82B200E010E0914623
:105AA0003146384600F042F884F822A04B460422E2
:105AB0004146384600F03AF84046FDF783FD0FE0D6
:105AC0003046FDF77FFDA6E7A078002320F0040014
:105AD000A07084F822A02A463146384600F026F805
