:020000040800F2
:10000000601700200D040008110400081304000804
:100010001504000817040008190400080000000077
:100020000000000000000000000000001B040008A9
:100030001D040008000000001F040008210400083F
:1000400023040008230400082304000823040008F4
:1000500023040008230400082304000823040008E4
:1000600023040008230400082304000823040008D4
:1000700023040008230400082304000823040008C4
:1000800023040008230400082304000823040008B4
:1000900023040008230400082304000823040008A4
:1000A0002304000823040008230400082304000894
:1000B0002304000823040008230400082304000884
:1000C0002304000823040008230400082304000874
:1000D0002304000823040008230400082304000864
:1000E0002304000823040008230400082304000854
:1000F0002304000823040008230400082304000844
:100100002304000823040008230400082304000833
:100110002304000823040008230400082304000823
:100120002304000823040008230400082304000813
:100130002304000823040008230400082304000803
:1001400023040008230400082304000823040008F3
:10015000DFF80CD001F040F900480047ED0200083C
:100160006017002010B500F05FF9874A906940F2EF
:100170007921084390618548016821F0F001016010
:10018000016841F0400101608149486820F4702015
:100190004860486840F4802048607E48036823F443
:1001A0007F230360036843F44C330360031D1C6822
:1001B00024F470041C601C6844F440141C60764BEA
:1001C0001C6824F070641C601C6844F040741C605F
:1001D000724B5C6844F008045C60036823F07F6342
:1001E0000360036843F096630360D06940F4003015
:1001F000D0616B4A40F235101080694A00200C3201
:100200001080121F1080664B42F20C021B1D1A80D8
:100210000A6822F470220A606249086061494FF45A
:10022000A040203908605F490E2008310860881519
:100230005C49283908605B485B49243801600168E3
:1002400041F00801016001680907FCD4016841F030
:100250000401016001684907FCD4016841F4A00170
:10026000016010BD4E4A121F111F0A2804D10B88CD
:100270001B06FCD50D2313800B881B06FCD5C1B2D1
:100280001180704743499C201031086070474149F4
:100290009C2014310860704738B5444C9C25206878
:1002A00090B14FF47840009096235A22D2216E20CC
:1002B00000F0C2F93EA1782000F00DFB3548103067
:1002C00005600020206038BD4FF4FC60009096234C
:1002D0005A22D2216E2000F0AFF937A1782000F029
:1002E000FAFA2C48143005600120EBE71CB5FFF743
:1002F00039FF00F01CF800F0C7FE31A012E001A9A0
:10030000684600F0F8FEDDE9001232A001F0B6F810
:100310000098A0385028F2D801988C28EFDBF028FC
:10032000EDDC30A001F0AAF8FFF7B6FFE7E708B56B
:1003300000F090F90F2000F08CFA0F2000F086FA00
:100340004FF6FF7000F07FFA2BA1182000F0C3FADF
:100350002D4832230A2100901A46084600F0D1FAAF
:10036000A82000F0CCFA1149A820083100F0B3FA17
:10037000C02000F0C4FA0D49C0201C3100F0ABFAD7
:100380000A490020486008BD00100240040C0140EA
:100390000010014000140140041801400000014019
:1003A000084400402C24014003000E0000000020FF
:1003B000204F4E2000000000204F46460000000065
:1003C0005453564E2D3130372055492044454D4F1A
:1003D0000A00000078203D2025642079203D20255A
:1003E000640A0000627574746F6E20697320707205
:1003F00065737365640A0000202020202020545378
:10040000564E2D31303700008C1700080548004744
:10041000FEE7FEE7FEE7FEE7FEE7FEE7FEE7FEE7B4
:10042000FEE7FEE75101000870B54449122008605C
:100430004448434941604449C162444901600168FC
:100440008903FCD5016841F0805101600168890091
:10045000FCD5016841F08061016001680901FCD5AB
:10046000016841F08071016001688901FCD5416833
:10047000C1F381010229FAD14468C16A344D14F0F4
:10048000030205D03348012A30D0022A2FD101E0DF
:1004900031482BE0220CD2071FD00A0CD2070CD017
:1004A000C1F30312521CB0FBF2F0C1F303220B2A7A
:1004B00001D2921C00E0121D504311F00E0F05D026
:1004C00001F00F01491CB0FBF1F007E0610CC90716
:1004D00004D000EBD070401000E02048C4F383410A
:1004E0000D2918D001F1020100FB01F0686020061F
:1004F000686805D5C4F3021101F1010120FA01F089
:100500002860A86061050FD5C4F30121491C20FAB9
:1005100001F1E96009E000F097FE0022104B00F0C5
:1005200023FE00F0A2FEE1E7E860A10403D5C4F3D6
:10053000C121491CC840286170BD00000020024054
:1005400002841D0B0010024044860100820001005D
:100550003000002040787D0100127A0000093D0043
:1005600000001A4030B5F9494FF400520A60F84BC8
:1005700040225A6154020C6014020D1D2C60F54D8E
:1005800028600C601A6130BDF04930B5091D4FF488
:1005900000520A60EE4B40225A6155020C1F256042
:1005A00015020D60EB49086025601A6130BD70B519
:1005B000E8494FF04430083908600A1F1060E348EA
:1005C0004B1403605B000360E14C402363615D02F8
:1005D000061D35600560081D0068236180B24FF07C
:1005E00033330B60136070BD2DE9F04104460D46B6
:1005F00016461F462A20FFF7C7FF200AFFF7B2FF63
:10060000E0B2FFF7AFFF280AFFF7ACFFE8B2FFF751
:10061000A9FF2B20FFF7B8FF300AFFF7A3FFF0B2C6
:10062000FFF7A0FF380AFFF79DFFF8B2FFF79AFF28
:10063000BDE8F0412C20A7E770B5049EFFF7D4FF7A
:1006400000244FF496353046FFF78CFF641CAC4213
:10065000F9D370BDF8B5C048816941F07D01816171
:10066000BC494FF033300C390860091D0860B848A8
:10067000016821F070610160016841F04071016022
:10068000B2490C390A68C2F313020A600A68B34B14
:100690001A430A6040210161AC494FF46040086090
:1006A0000A2000F047F9D320FFF76EFFFFF77FFF26
:1006B0000446FFF77CFF0546FFF779FF0646FFF784
:1006C00076FF009033462A462146A5A000F0D6FECC
:1006D0001120FFF759FF142000F02CF9D020FFF76C
:1006E00053FF0720FFF73EFF4120FFF73BFF1F208E
:1006F000FFF738FFD120FFF747FF0020FFF732FF59
:100700002C20FFF72FFF1A20FFF72CFFD220FFF736
:100710003BFF0120FFF726FF1120FFF723FFC0203A
:10072000FFF732FF0020FFF71DFF3B20FFF71AFF06
:100730000020FFF717FF0220FFF714FF1120FFF73B
:1007400011FFC520FFF720FF0220FFF70BFFC82095
:10075000FFF71AFF0720FFF705FF0720FFF702FF4B
:100760000720FFF7FFFE5020FFF7FCFE0820FFF7F1
:10077000F9FE0020FFF7F6FE0720FFF7F3FE072043
:10078000FFF7F0FE0720FFF7EDFE0520FFF7EAFE7A
:100790000220FFF7E7FE0620FFF7E4FE3620FFF712
:1007A000F3FEE820FFF7DEFE3A20FFF7EDFE5520CE
:1007B000FFF7D8FEF020FFF7E7FE0120FFF7D2FE9B
:1007C000F320FFF7E1FE4020FFF7CCFE0A20FFF701
:1007D000C9FE2A20FFF7D8FE0020FFF7C3FE002045
:1007E000FFF7C0FE0120FFF7BDFE3F20FFF7BAFE76
:1007F0002B20FFF7C9FE0020FFF7B4FE0020FFF713
:10080000B1FE0120FFF7AEFEDF20FFF7ABFE782040
:1008100000F090F82920FFF7B7FE2C20FFF7B4FE78
:10082000BDE8F840052000F085B80B461A460146A1
:10083000DAE610B589B280B2FFF7F7FF52480088B8
:10084000BDE810408EE65049088070474E49488008
:10085000704770B506460022F0234FF4A071104691
:10086000FFF7C2FE00244FF496353046FFF77AFEBC
:10087000641CAC42F9D370BD2DE9F0410C469046A2
:1008800000F1170182B28BB204F10F0081B2002592
:10089000A0B2FFF7A9FE3C4F0126002438F815004E
:1008A00006FA04F108420BD0B7F80000FFF75AFE31
:1008B000641C102CF2DB6D1C182DEED3BDE8F0810A
:1008C0007888F3E7203A304BD2B202EB42021B1D8C
:1008D00003EB0212D0E72DE9F041002507460C4654
:1008E0002E4606E031463846FFF7ECFF1036641C12
:1008F0006D1C2278002AE1D0142DF3D3DEE723A16A
:10090000E9E770B502FB03F502440B44521E96B2B0
:100910005B1E8AB29BB2314680B2049CFFF764FE34
:10092000002604E034F8020BFFF71CFE761CAE42F2
:10093000F8D370BD012242F2107304E00121491C7A
:100940009942FCD3521C8242F8D9704710140140DE
:10095000001001400C18014000100240000030332C
:10096000696430203D2025582C20696431203D20C9
:1009700025582C20696432203D2025582C2069649C
:1009800033203D2025580A0044000020202020204C
:100990002020202020202020202020202020202057
:1009A00000000000CC48016841F00101016041688D
:1009B000CA4A114041600168C94A1140016001689A
:1009C00021F480210160416821F4FE014160016849
:1009D00021F0A05101604FF47F0181600021C162CC
:1009E0007047BD490A6822F480320A600A6822F41E
:1009F00080220A60B0F5803F07D0B0F5802F03D188
:100A0000086840F4A02008607047086840F480300F
:100A1000F9E7024600205309AF49012B0AD0022B07
:100A20000AD0496A02F01F02012393400B4200D012
:100A3000012070470968F5E7096AF3E730B500243B
:100A40004FF4A0653120FFF7E4FF641CAC4201D0F5
:100A50000028F7D03120FFF7DCFF002800D001206C
:100A600030BD9D490A6822F0F80242EAC0000860E1
:100A700070479C4908607047974A5368084323F4BD
:100A80007413184350607047964908667047924B3C
:100A900010B5DA6A944C084322401043D86210BD66
:100AA0008D4AD16A21F0F0010143D16270478A4A30
:100AB000D16A21F470610143D16270478949886627
:100AC0007047854AD16A21F470410143D162704771
:100AD000844908677047804A516821F00301014347
:100AE000516070477C48406800F00C0070477A4ABB
:100AF000516821F0F001014351607047764A516816
:100B000021F4E06101435160704773494A6822F45F
:100B1000605242EAC000486070476F4A0029517A2B
:100B200001D0014300E08143517270476F49086072
:100B30007047694A516821F4404101435160704750
:100B40006B49086070476A49091D08607047694928
:100B500000220A7001F82029012802D0042802D1BD
:100B6000052081F8200070476349086070475A49A2
:100B70000A6A02430A6270475F4944390860704755
:100B800070B555494A685D4B12F00C0204D05C4DBB
:100B9000042A03D0082A03D0036029E0056027E077
:100BA0004A684B6802F47012920C03F480330D2AE9
:100BB00001D0921C00E00622BBB1CB6ACC6A13F4D0
:100BC000803F04F00F0404F101040AD0CB6AC3F3A0
:100BD0000316CB6A761CB5FBF6F5C3F303239B1C07
:100BE0005D43B5FBF4F35343D6E7464B5A430260EB
:100BF0004A68454B02F0F00212099C5C0268E24030
:100C000042604C6804F4E064240A1C5D22FA04F497
:100C100084604C6804F46054E40A1B5DDA40C260EE
:100C20004968394B01F44041890B1B1F595CB2FBE9
:100C3000F1F1016170BD284A0029516901D00143D9
:100C400000E0814351617047234A0029916901D036
:100C5000014300E08143916170471F4A0029D16937
:100C600001D0014300E08143D16170471A4A002955
:100C7000916A01D0014300E0814391627047164AB6
:100C80000029D16801D0014300E08143D160704761
:100C9000114A0029116901D0014300E0814311612B
:100CA000704715494039086070470E49C86470475D
:100CB0000949C87170470848416A41F08071416232
:100CC0007047054A0146002092680A4200D0012080
:100CD0007047014988727047001002400000FFF021
:100CE000FFFFF6FE00004242F0FFFEFFD800424246
:100CF000C4054242201002408004424200127A00A1
:100D000040787D0100093D004C150020904910B548
:100D1000884206D101210420FFF7B1FF0021042001
:100D20003BE08C49884206D101210820FFF7A7FF4C
:100D30000021082031E08849884206D10121102095
:100D4000FFF79DFF0021102027E08449884206D14B
:100D500001212020FFF793FF002120201DE0804982
:100D6000884206D101214020FFF789FF0021402061
:100D700013E07C49884206D101218020FFF77FFFE4
:100D80000021802009E0784988420AD18415012198
:100D90002046FFF774FF00212046BDE81040FFF712
:100DA0006EBF10BD10B501210846FFF768FF002196
:100DB000BDE810400120FFF762BF2DE9F041CB787C
:100DC000002503F00F02DB0601D58B781A430B8850
:100DD0004FF00F0813F0FF0F4FF0010C1BD0046809
:100DE0000E880CFA05F31E409E4210D1AF0008FA9F
:100DF00007F624EA060602FA07F43443CE78282ED2
:100E000002D0482E02D002E0436100E003616D1C75
:100E1000082DE5D304600B88FF2B1DD944680025FD
:100E200005F108060CFA06F30E881E409E420FD10B
:100E3000AF0008FA07F624EA060602FA07F434437C
:100E4000CE78282E00D14361CE78482E00D10361A0
:100E50006D1C082DE4D34460BDE8F0814FF6FF71AE
:100E60000180022181700421C17070470246002078
:100E700092680A4200D001207047806880B27047B3
:100E800002460020D2680A4200D001207047C068A4
:100E900080B2704701617047416170470AB10161DA
:100EA000704741617047C160704741F48032826190
:100EB000816182618169806970472C4B10B51A6825
:100EC0004FF68074224042EA00100843186010BDBB
:100ED0002749C8617047F0B5244C002801DAE3695E
:100EE00000E06368420D120185B2C0F301579540DE
:100EF000C0F30346032F05D0C2020AD50322B24035
:100F0000934307E023F07062636823F070636360CB
:100F100002E0AB4343F0706201B12A43002801DADA
:100F2000E261F0BD6260F0BD10B58A0721F00304F4
:100F30000E49130F21440F228C689A4094438C6011
:100F40008A68984002438A6010BD0A490860704769
:100F500000080140000C0140001001400014014055
:100F600000180140001C0140002001400000014029
:100F700000002042DC00204200E0401E0028FCDC93
:100F800070472DE9F041774D00264FF480512846F7
:100F9000FFF782FF2F1539462846FFF77BFF002415
:100FA0004FF400680520FFF7E7FF39462846FFF7B2
:100FB00073FF0520FFF7E0FF41462846FFF756FF85
:100FC00000B10120C4F10B018840304386B20520F6
:100FD000FFF7D2FF39462846FFF75CFF641CE4B2F6
:100FE0000C2CDFD34FF480712846FFF753FFC6F374
:100FF0000B00BDE8F0812DE9F0475A4D07464FF44C
:10100000807421462846FFF745FF260131462846D1
:10101000FFF742FF4FF4806841462846FFF73CFF48
:1010200021462846FFF738FFB14600244FEA08065C
:10103000C4F1070027FA00F010F0010F49462846D6
:1010400002D0FFF727FF01E0FFF726FF0520FFF79B
:1010500093FF31462846FFF71DFF0520FFF78CFF61
:1010600031462846FFF718FF641CE4B2082CDFD392
:10107000BDE8F08710B59020FFF7BDFF0520FFF712
:101080007BFFBDE810407CE738B501211020FFF759
:10109000DBFD4FF4A850ADF8000010208DF80300E0
:1010A0000120304C8DF8020069462046FFF785FE8E
:1010B0004FF40260ADF8000004208DF8030069468B
:1010C0002046FFF77AFEFFF7D5FF38BD10B5D020D8
:1010D000FFF791FF0520FFF74FFFBDE8104050E7F5
:1010E00070B505460E46FFF7C5FF0446FFF7EEFF55
:1010F0002C60306070BD2DE9F04780468946FFF7CF
:10110000E5FF0746FFF7B6FF164E054600242021EF
:101110003046FFF7ABFE0028F9D10CE0FFF7D6FF11
:1011200038444710FFF7A6FF284445106420FFF716
:1011300023FF641CE4B220213046FFF797FE08B974
:10114000322CEBD920213046FFF790FE0028F9D051
:101150000A2097FBF0F295FBF0F1C8F80020C9F8DF
:10116000001085E7001001402DE9FE4F81EA0304DD
:1011700021F0004504F0004423F000414FF0000A44
:10118000009450EA050302D052EA010304D1002082
:10119000014603B0BDE8F08FC1F30A53C5F30A540A
:1011A0001C44A0FB02B3C5F3130545F4801CC1F336
:1011B000130141F480180CFB023300FB083EA4F23B
:1011C000F334810A930A41EA8C5143EA885301942B
:1011D000A1FB03474FEA9C2505FB03734FEA9826C2
:1011E00001FB06373D05260545EA1435BBEB060134
:1011F0006EEB0503850E920E45EA8C1542EA8812C5
:10120000A5FB0206261E67EB00070C0D44EA03341B
:10121000A41947EB1350C1F313064FF0000319460E
:101220004FEA033343EA165343EA0403019CE5FB08
:101230000201A4F10C040294009C4FEA0632CDE9AD
:1012400000A400F077F8A4E70EB5C10F80EAE070C3
:101250000844CA07002140F233438DE80E000A46D5
:101260000B4600F067F803B000BDC1F30A52C1F3AA
:10127000130140F2FF3341F480119A4201DA002059
:10128000704740F233439A42A2F2334202DC5242A8
:1012900000F033B8904070472DE9F05F054600201C
:1012A00092469B4688460646814640241BE02846D7
:1012B00041464746224600F020F852465B46801AD7
:1012C000994110D310461946224600F097F82D1A7E
:1012D00067EB01084F4622460120002100F08EF8FE
:1012E00017EB00094E41201EA4F10104DFDC484643
:1012F00031462A464346BDE8F09F202A04DB203AC7
:1013000021FA02F00021704721FA02F3D040C2F125
:101310002002914008431946704710B5002B08DAA7
:10132000401C41F1000192185B411A4301D120F0A9
:10133000010010BD2DE9F04D92469B4611B1B1FA66
:1013400081F202E0B0FA80F22032904600F056F8C6
:1013500006460F4640EA0A0041EA0B0152465B4648
:10136000084303D130463946BDE8F08D194652EAAC
:10137000010015D0C8F140025046FFF7BEFF0446F9
:101380000D4650465946424600F038F8084301D011
:10139000012000E00020044345EAE07526432F4386
:1013A0000A984FEAD625A0EB08000A304FEA4653C8
:1013B0004FF0000245EA47554FEAD72402D50020F6
:1013C0000146D1E7010550196141DDE908450019E1
:1013D0006941BDE8F04DA0E7064C074D06E0E06826
:1013E00040F0010394E8070098471034AC42F6D36C
:1013F000FEF7B2FE142B0008342B0008202A04DB71
:10140000203A00FA02F1002070479140C2F1200317
:1014100020FA03F319439040704770B58C1810F808
:10142000015B15F0030201D110F8012B2B1106D13D
:1014300010F8013B03E010F8016B01F8016B521E3C
:10144000F9D1B3B110F8012B05F00C058A1A0C2D57
:1014500004D0A2EB851203F1020308E010F8015B4F
:10146000A2EB0522F7E712F8015B01F8015B5B1EB6
:10147000F9D5A142D3D3002070BD00000FB4054BB5
:1014800010B503A9044A029800F018F810BC5DF8E2
:1014900014FB0000650200085C15002002E008C88B
:1014A000121F08C1002AFAD170477047002001E0DE
:1014B00001C1121F002AFBD1704700002DE9FF4F28
:1014C0008DB004469B460F46002641E1252801D0F9
:1014D0000F9963E00025641CA14AA84601212378E6
:1014E000203B01FA03F0104202D00543641CF6E7EA
:1014F00020782E2817D114F8010F45F004052A286A
:101500000ED06FF02F022078A0F1300109290AD8FF
:1015100008EB880102EB410100EB0108641CF2E7D3
:1015200057F8048B641C20786C280DD004DC4C2800
:1015300012D06A2811D104E074280DD07A280CD179
:101540000AE045F4001507E0617845F48015814212
:1015500002D1641C05F58015641C94F800C0BCF130
:10156000690F4DD00CDCBCF1000F6ED0BCF1580FF0
:101570006FD0BCF1630F16D0BCF1640F0CD13FE00B
:10158000BCF1700F6AD0BCF1730F15D0BCF1750FB0
:101590005DD0BCF1780F5CD00F9960465A469047F9
:1015A00006F10106D3E001CF8DF8000000208DF890
:1015B0000100E946012003E057F8049B4FF0FF309B
:1015C00069074FF0000501D40AE06D1C45450DDAAE
:1015D0008542FADB19F805100029F6D106E06D1CEA
:1015E0008542FCDB19F805100029F8D12E4404E0EF
:1015F00019F8010B5A460F9990476D1EF8D2A6E0D4
:101600000A200021CDE90801C5F3025002280AD0C2
:1016100001CFC11700290DDA0023D0EB030063EBE3
:1016200001012D2209E007F1070727F00707F7E876
:101630000201EFE72A0504D52B228DF8282001228C
:1016400030E0EA072ED02022F7E785E001E00A200B
:1016500000E010200021CDE9080107E01020002162
:1016600045F00405CDE908014FF00808C5F3025024
:1016700002281CD001CF00214FF0000A2A0712D502
:10168000BCF1700F19D0DDE9083283F01003134369
:1016900009D150EA010206D030228DF828208DF8B9
:1016A00029C002229246BCF1580F10D00AE0FF1D5B
:1016B00027F00707F7E80201DEE740228DF828202F
:1016C0004FF0010A27A20DF120090B9209E02AA28E
:1016D000F9E7DDE90823FFF7DFFD0B9B9B5C09F8C9
:1016E000013D50EA0102F4D1ADEB090000F1200008
:1016F0000890680701D44FF001080899884502DD79
:10170000A8EB010000E000208046002506E00AA8C2
:101710005A46405D0F999047761C6D1C5545F6DB87
:1017200004E030205A460F999047761CB8F100012A
:10173000A8F10108F5DC05E019F8010B5A460F99EC
:101740009047761C0899481E08900029F4DC641C18
:10175000207800287FF4BAAE11B03046BDE8F08F93
:101760000928010030313233343536373839616277
:10177000636465660000000030313233343536373B
:101780003839414243444546000000007DEF7DEF7B
:101790007DEF7DEF7DEF7DEF7DEF7DEF7DEF7DEFE9
:1017A0007DEF7DEF7DEF7DEF7DEF7DEF7DEF7DEFD9
:1017B0007DEF7DEF7DEF7DEF7DEF7DEF7DEF7DEFC9
:1017C0007DEF7DEF7DEF7DEF7DEF7DEF7DEF7DEFB9
:101A10007DEF7DEF7EEF7DEF7DEF7DEF7DEF7DEF65
:101A20007DEF7DEF7DEF7DEF7DEF7DEF7DEF7DEF56
:101A30007DEF7DEF7DEF7DEF7DEF7DEF7DEF7DEF46
:101A40007DEF7DEF7DEF7DEF7DEF7DEF7DEF7DEF36
:101A50007DEF7DEF7DEF7DEF7DEF7DEF7DEF7DEF26
:101A60007DEF7DEF7DEF7DEF7DEF7DEF7DEF7EEF15
:101A70007EEF7DF77DEFBDBEFDB6DDB6DEB67DF750
:101A80007EEF7EF77DEF7DEF7DEF7DEF7DEF7DEFEC
:101A90007DEF7DEF7DEF7DEF7DEF7DEF7DEF7DEFE6
:101AA0007DEF7DEF7DEF7DEF7DEF7DEF7DEF7DEFD6
:101AB0007DEF7DEF7DEF7DEF7DEF7DEF7DEF7DEFC6
:101AC0007DEF7DEF7DEF7DEF7DEF7DEF7DEF9DEF96
:101AD0007EEF7DEF7EAE9DAE7DAE7DAE7DAE7DAE0A
:101AE0007DAE7DAE7DAE9DAE7DAE7DF77DF77DEFAB
:101AF0007DEF7DEF7DEF7DEF7DEF7DEF7DEF7DEF86
:101B00007DEF7DEF7DEF7DEF7DEF7DEF7DEF7DEF75
:101B10007DEF7DEF7DEF7DEF7DEF7DEF7DEF7DEF65
:101B20007DEF7DEF7DEF7DEF7DEF7DEF7DEF7DEF55
:101B30007DEF3CA61C963C961C961C963C963C96CB
:101B40003C963C963C963C961C961C961C961C9685
:101B50001C967DEF7DEF7DEF7DEF7DEF7DEF7DEFDF
:101B60007DEF7DEF7DEF7DEF7DEF7DEF7DEF7DEF15
:101B70007DEF7DEF7DEF7DEF7DEF7DEF7DEF7DEF05
:101B80007DEF7DEF7DEF7DEF7DEF7DEF7DEF7DEFF5
:101B90007DEF7DEF9B75BB75BB75BB75BB75BB756D
:101BA000BB75BB75BB75BB75BB75BB75BB75BB75B5
:101BB000BB75BB75BB75BB757DEF5EEF7DEF7DEFD4
:101BC0007DEF7DEF7DEF7DEF7DEF7DEF7DEF7DEFB5
:101BD0007DEF7DEF7DEF7DEF7DEF7DEF7DEF7DEFA5
:101BE0007DEF7DEF7DEF7DEF7DEF7DEF7DEF7DEF95
:101BF0007DEF7DEF7EEF3A5D3A5D3A5D3A5D3A5DAD
:101C00003A5D3A5D3A5D3A5D3A5D3A5D3A5D3A5D1C
:101C10003A5D3A5D3A5D3A5D3A5D3A5D3B5D3A5513
:101C20007EEF7DEF7DEF7DEF7DEF7DEF7DEF7DEF53
:101C30007DEF7DEF7DEF7DEF7DEF7DEF7DEF7DEF44
:101C40007DEF7DEF7DEF7DEF7DEF7DEF7DEF7DEF34
:101C50007DEF7DEF7DEF7DEFBA3CBA3CB93CB93CFE
:101C6000B93CB93CB93CB93CB93CB93CB93CB93CCC
:101C7000B93CB93CB93CB93CB93CB93CB93CB93CBC
:101C8000B93C993CB93C9DF77DEF7DEF7DEF7DEF51
:101C90007DEF7DEF7DEF7DEF7DEF7DEF7DEF7DEFE4
:101CA0007DEF7DEF7DEF7DEF7DEF7DEF7DEF7DEFD4
:101CB0007DEF7DEF7DEF7DEF7DEF382439243924F2
:101CC000392439243924392439243924392439242C
:101CD000392439243924392439243924392439241C
:101CE0003924392439243924381C39247EEF7DEFF6
:101CF0007DEF7DEF7DEF7DEF7DEF7DEF7DEF7DEF84
:101D00007DEF7DEF7DEF7DEF7DEF7DEF7DEF7DEF73
:101D10007DEF7DEF7DEF7DEF7DEF7DF7F803D80B55
:101D2000D80BD80BD80BD80BD80BD80BD80BD80B9B
:101D3000D80BD80BD80BD80BD80BD80BD80BD80B8B
:101D4000D80BD80BD80BD80BD80BD80BD80BF80B5B
:101D50009DEF7DEF7DEF7DEF7DEF7DEF7DEF7DEF03
:101D60007DEF7DEF7DEF7DEF7DEF7DEF7DEF7DEF13
:101D70007DEF7DEF7DEF7DEF7DEF7DEF7DEFB803B4
:101D8000B703B803B803B803B803B803B803B8037C
:101D9000B803B803B803B803B803B803B803B8036B
:101DA000B803B803B803B803B803B803B803B8035B
:101DB000B803B803B8037DEF7DEF7DEF7DEF7DEFD6
:101DC0007DEF7DEF7DEF7DEF7DEF7DEF7DEF7DEFB3
:101DD0007DEF7DEF7DEF7DEF7DEF7DEF7DEF7DEFA3
:101DE0007DEF7DEF7DEF7DEF7DEF7DEF7DEF7DEF93
:101DF0007DEF7DEF7DEF7DEF7DEF7DEF7DEF7DEF83
:101E00007DEF7DEF7DEF7DEF7DEF7DEF7DEF7DEF72
:101E10007DEF7DEF7DEF7DEF7DEF7DEF7DEF7DEF62
:101E20007DEF7DEF7DEF7DEF7DEF7DEF7DEF7DEF52
:101E30007DEF7DEF7DEF7DEF7DEF7DEF7DEF7DEF42
:101E40007DEF7DEF7DEF7DEF7DEF7DEF7DEF7DEF32
:101E50007DEF7DEF7DEF7DEF7DEF7DEF7DEF7DEF22
:101E60007DEF7DEF7DEF7DEF7DEF7DEF7DEF7DEF12
:101E70007DEF7DEF7DEF7DEF7DEF7DEF7DEF7DEF02
:101E80007DEF7DEF7DEF7DEF7DEF7DEF7DEF7DEFF2
:101E90007DEF7DEF7DEF7DEF7DEF7DEF7DEF7DEFE2
:101EA000B80398037DEF7DEF7DEF7DEF7DEF7DEF54
:101EB0007DEF7DEF7DEF7DEF7DEF7DEF7DEF7DEFC2
:101EC0007DEF7DEF7DEF7DEF7DEF7DEF7DEF7DEFB2
:101ED0007DEF7DEF7DEF7DEF7DEF7DEF7DEF7DEFA2
:101EE0007DEF7DEF7DEF7DEF7DEF7DEF7DEF7DEF92
:101EF0007DEF7DEF7DEF7DEF7DEF9EEF7DEF7DEF61
:101F00007DEF7DEFB80397037DEF7DEF7DEF7DEFF4
:101F10007DEF7DEF7DEF7DEF7DEF7DEF7DEF7DEF61
:101F20007DEF7DEF7DEF7DEF7DEF7DEF7DEF9EEF30
:101F30009703970B7DEF7DEF7DEF7DEF7DEF7DEFDD
:101F40007DEF7DEF7DEFB7037DEF7DEF9803B80365
:101F50007DEF7DEF7DEF7DEF7DEF7DEF7DEF7DEF21
:101F6000B7037DEF7EEF9DEFB8031DD77DEF7EEFCA
:101F70007DEF7DEF7DEF7DEF7DEF7EEF7DEF7DEF00
:101F80007DEF7DEF7DEF7DEF7DEF7DEF7DEF7EEFF0
:101F90007DEF7DEFB8037DEF7DEF7DEF7DEF7DEF92
:101FA0007EEF7DEF7DEF7DEF7DEF97037DEF7EEFA1
:101FB000B6037EEF7EEF7DEF7DEF7DEF7DEF7DEF72
:101FC000DCBE9703B703993C7EEF7DEFB7037DEF4F
:101FD000B703B8037EEF7DEF7DEF7DEF7DEFB703B5
:101FE00098037EEF7DEF7DEF7DEF7EEFB8031A5D06
:101FF0007DF7993C7EEF7DEF99347DEF7DEF7DEFAE
:102000007DEF980397037DEF7EEF7DEF9A7D983CFF
:102010007DEF7EEF983C7EEF7DEF7EEF7DEF9703C7
:10202000B7037EEFB8039803B703B7037EEF7DEFE6
:10203000B70397039703B703B8039DEF7DEF195DCF
:10204000B803B7039703B7037DEF7DEF9803B7039A
:10205000B7039703B80398037EEF9DEFB7037DEFB7
:102060007DEFB80398039703980397037DEF7DEF07
:10207000980398037DEF7DEFB7037DEF7DEF7DF74C
:102080009803B703B70398037DEFB703B7037DEF5A
:102090007DEF5BA6B7039DF77DEF1824B7037DEFB7
:1020A0007EEF9803DCC67DEF7EEFB8037DEF7DEF1A
:1020B00097031A5D7DEF7DEFB70398037DEFB703BC
:1020C000B7037DEF7DEFB7037DEF7DEF9DEFB703A6
:1020D0007DEF7DEFB803B8037DEF5BA6B7037DEF1F
:1020E0007DEF9803B7037DEF7DEF7DEF7DEFB703C5
:1020F000D94C7DEF7DEF9803B7037DEF7DEF7DEF4A
:10210000B8037DEF3BA69803993C993CB93CB803D2
:102110009DEFB80397037DEF7DEF7DEFB7039DEF54
:102120007DEF970397037DEF9803B7037DEF7DEF76
:102130009DEFB80397037DEFB70397037DEF9803F7
:10214000B7037DEF9703B8037DEF7DEF7DEF7DEF64
:102150007EEF97037DEF7DEF7DEF9803B7037DEF73
:102160007DEFB70397037DEFB703B703B703B7035B
:10217000B703B8035DEFB803B7037DEF7DEF7DEFE5
:10218000B7037DEF7DEFB703B8039DEFB8037DEF95
:102190007DEF7DEF7DEFB7037DEF7DEFB7033DDF93
:1021A0007DEF980398037DEF970397037DEF7DEF15
:1021B0007DEF7DEF9EEF97037DEF7DEF7EEFB70321
:1021C000B7037DEF7DEFB803B7037DEF9703980367
:1021D0007DEF7DEF7DEF7DEF7DEFB703B7037DEF03
:1021E0007DEF1B96B7037DF77DEFB7037DF77DEF9E
:1021F000B7031DCF7DEF7DEF793CB7037DEF7DEF1A
:10220000B7037EEF7EEFB703B7037DEFB803B703E5
:102210007DEF7DEF7DEF7DEF7EEFB7037EF77EEF05
:102220007DEFB7035CA67DEF7DEFB703B8037DEFCD
:10223000B703B7037DEF7EEF7DEF7DEF7DEFB70353
:10224000B8037DEF5DEFB703B7039DEF7EEFB703F4
:102250007DEF7EEF9703B7037EEF7DEF9803970343
:102260007DEF5DF797037DEF7DEFB7035CA67DEF14
:10227000B803B7039DEF7DEF7EEF7EEF7DEFB703F1
:1022800098035CA67DEF97037DEF7DEF7DEFB803AC
:102290007DF77DEF7DEFB703B803B703B8039EEF7B
:1022A0007DEF7DEF9703B803B7039803B8037DEF85
:1022B0007DEF98037DEF7DEF9DEFB7039703B703A5
:1022C000D8037DEF7DEF980397037DEF7DEF9703B4
:1022D0007DEF7DEF9DEFB803B7039703B7037EEF64
:1022E0007DEF7EEF7EEF7DEF7DEF7EEF7EEF7DEF8A
:1022F0007EEF7DEF7DEF7DEF7DEF7DEF7DEF7EEF7C
:102300007DEF7DEF7DEF7DEF7DEF7EEF5CEFB7033F
:10231000B8037DEF7DEF7DEF7DEF7DEF7DEF7DEF0E
:102320007EEF7DEF7DEF7DEF7DEF7DEF7DEF7DEF4C
:102330007DEF7EEF7EEF7DEF7DEF7DEF7DEF7DEF3B
:102340007DEF7DEF7DEF7DEF7DEF7DEF7DEF7DEF2D
:102350007DEF7DEF7DEF7DEF7DEF7DEF7DEF7DEF1D
:102360007DEF7DEF7DEF7DEF7DEFB7037DEF7DEFBF
:10237000B70397037EEF7DEF7DEF7DEF7DEF7DEF80
:102380007DEF7DEF7DEF7DEF7DEF7DEF7DEF7DEFED
:102390007DEF7DEF7DEF7DEF7DEF7DEF7DEF7DEFDD
:1023A0007DEF7DEF7DEF7DEF7DEF7DEF7DEF7DEFCD
:1023B0007DEF7DEF7DEF7DEF7DEF7DEF7DEF7DEFBD
:1023C0007DEF7DEF7DEF7DEF7DEF7DEF9DEFB7033F
:1023D000B803970397037EEF7DEF7DEF7DEF7DEFF1
:1023E0007DEF7DEF7DEF7DEF7DEF7DEF7DEF7DEF8D
:1023F0007DEF7DEF7DEF7DEF7DEF7DEF7DEF7DEF7D
:102400007DEF7DEF7DEF7DEF7DEF7DEF7DEF7DEF6C
:102410007DEF7DEF7DEF7DEF7DEF7DEF7DEF7DEF5C
:102420007DEF7DEF7DEF7DEF7DEF7DEF7DEF7DEF4C
:102430007DEF7DEF7EEF7EEF7DEF7DEF7DEF7DEF3A
:102440007DEF7DEF7DEF7DEF7DEF7DEF7DEF7DEF2C
:102450007DEF7DEF7DEF7DEF7DEF7DEF7DEF7DEF1C
:102460007DEF7DEF7DEF7DEF7DEF7DEF7DEF7DEF0C
:102470007DEF7DEF7DEF7DEF7DEF7DEF7DEF7DEFFC
:102480007DEF7DEF7DEF7DEF7DEF7DEF7DEF7DEFEC
:102490007DEF7DEF7DEF7DEF7DEF7DEF7DEF7DEFDC
:1024A0007DEF7DEF7DEF7DEF7DEF7DEF7DEF7DEFCC
:1024B0007DEF7DEF7DEF7DEF7DEF7DEF7DEF7DEFBC
:1024C0007DEF7DEF7DEF7DEF7DEF7DEF7DEF7DEFAC
:1024D0007DEF7DEF7DEF7DEF7DEF7DEF7DEF7DEF9C
:1024E0007DEF7DEF7DEF7DEF7DEF7DEF7DEF7DEF8C
:1024F0007DEF7DEF7DEF7DEF7DEF7DEF7DEF7DEF7C
:102500007DEF7DEF7DEF7DEF7DEF7DEF7DEF7DEF6B
:102510007DEF7DEF7DEF7DEF7DEF7DEF7DEF7DEF5B
:102520009DEF7DEF7DEF7DEF7DEF7DEF7DEF7DEF2B
:102530007DEF7DEF7DEF7DEF7DEF7DEF7DEF7DEF3B
:102540007DEF7DEF7DEF7DEF7DEF7DEF7DEF7DF723
:10255000D80BB703B703B703B703B703B703B70382
:10256000B703B703B703B703B703B703B703B7039B
:10257000B703B703B703B703B703B703B703B7038B
:10258000B703B7039DEF7DEF7DEF7DEF7DEF7DEF2F
:102590007DEF7DEF7DEF7DEF7DEF7DEF7DEF7DEFDB
:1025A0007DEF7DEF7DEF7DEF7DEF7DEF7DEF7DEFCB
:1025B0007DEF7DEF7DEF18141814181C181C181CE3
:1025C000181C181C181C181C181C181C181C181C6B
:1025D000181C181C181C181C181C181C181C181C5B
:1025E000181C181C181419147EEF7DEF7DEF7DEF79
:1025F0007DEF7DEF7DEF7DEF7DEF7DEF7DEF7DEF7B
:102600007DEF7DEF7DEF7DEF7DEF7DEF7DEF7DEF6A
:102610007DEF7DEF7DEF7DEF7DEF7DEF79347934D8
:102620007934793479347934793479347934793442
:102630007934793479347934793479347934793432
:10264000793479347934793499347DEF7DEF7DEFC5
:102650007DEF7DEF7DEF7DEF7DEF7DEF7DEF7DEF1A
:102660007DEF7DEF7DEF7DEF7DEF7DEF7DEF7DEF0A
:102670007DEF7DEF7DEF7DEF7DEF7DEF7DEF7DEFFA
:102680007EEF1A551A551A4D1A4D1A4D1A4D1A4DFC
:102690001A4D1A4D1A4D1A4D1A4D1A4D1A4D1A4D02
:1026A0001A4D1A4D1A4D1A551A4DFA4C7EF77DEFF8
:1026B0007DEF7DEF7DEF7DEF7DEF7DEF7DEF7DEFBA
:1026C0007DEF7DEF7DEF7DEF7DEF7DEF7DEF7DEFAA
:1026D0007DEF7DEF7DEF7DEF7DEF7DEF7DEF7DEF9A
:1026E0007DEF7DEF7DEF7DEF7B6D7B6D7B6D7B6D9A
:1026F0007B6D7B6D7B6D7B6D7B6D7B6D7B6D7B6D9A
:102700007B6D7B6D7B6D7B6D7B6D7B757B6D9DEFDD
:102710007DEF7DEF7DEF7DEF7DEF7DEF7DEF7DEF59
:102720007DEF7DEF7DEF7DEF7DEF7DEF7DEF7DEF49
:102730007DEF7DEF7DEF7DEF7DEF7DEF7DEF7DEF39
:102740007DEF7DEF7DEF7DEF7DEF7DEF9DEF1C86D3
:102750001C8E1C8E1C8E1C8E1C8E1C8E1C8E1C8E29
:102760001C8E1C8E1C8E1C8E1C8EFC8D1C8E7DEF78
:102770007DEF7DEF7DEF7DEF7DEF7DEF7DEF7DEFF9
:102780007DEF7DEF7DEF7DEF7DEF7DEF7DEF7DEFE9
:102790007DEF7DEF7DEF7DEF7DEF7DEF7DEF7DEFD9
:1027A0007DEF7DEF7DEF7DEF7DEF7DEF7DEF7DEFC9
:1027B0007DEF7DEF7EEF7DA67CA67DA69DA67DA606
:1027C0007DA67DA67DA69DA67DA67CA67DA67DEF89
:1027D0007DEF7DEF7DEF7DEF7DEF7DEF7DEF7DEF99
:1027E0007DEF7DEF7DEF7DEF7DEF7DEF7DEF7DEF89
:1027F0007DEF7DEF7DEF7DEF7DEF7DEF7DEF7DEF79
:102800007DEF7DEF7DEF7DEF7DEF7DEF7DEF7DEF68
:102810007DEF7DEF7DEF7DEF7DEF7DEF7DEF7DF750
:10282000FDB6DEB6DEB6DDB6BDB6BEB67DEF7DEF7B
:102830007DEF7DEF7DEF7DEF7DEF7DEF7DEF7DEF38
:102840007DEF7DEF7DEF7DEF7DEF7DEF7DEF7DEF28
:102850007DEF7DEF7DEF7DEF7DEF7DEF7DEF7DEF18
:102860007DEF7DEF7DEF7DEF7DEF7DEF7DEF7DEF08
:102B10007DEF7DEF342B00080000002060150000E1
:102B20001A140008F03200086015002000020000AE
:102B3000AC140008520001031020000100131420FF
:102B4000205549202620544F5543482044454D4F99
:102B50000001000431FFFF00010316800102611E25
:102B6000E16892CC02012A6A23600C02200F300631
:102B70003006FE1FFE1F3006380718030A2007180C
:102B80000318038C01023172201700E003F80F9C38
:102B90000E8C1C8C188C009800F801E007800E80C9
:102BA0000E100B189C18B80CF00FE0038026A5221D
:102BB00010090E181B0C110C110602101103110341
:102BC0009B018E01C038C06C6044604430026407D1
:102BD0001844186C0C38261005E001F0037A101424
:102BE0000618063003F001F000F8009C310E3306A1
:102BF0001E061C02E4063FFC73F02180920C0201C9
:102C000021E7100B0200038001C000C0006002D267
:102C100030022114211C155E12032A35F2211235CF
:102C200070120302D20602111425A2214EE91C21C2
:102C3000481008D806F807E00130D2052AEAC40592
:102C4000FC3FFC3FE8092C30120002021B806C089C
:102C50000532E007E0078E41D6F57F750C155C352F
:102C60001045624564D17AE00A03F007380E180C6B
:102C70000C1802D409180C380EF007E003B0214CF0
:102C80000C071901F0019801880803A16043F80FAF
:102C90005E220002219C35F025ECD0071800FC1FB5
:102CA000FC1F90100701F807180E0C0121C8180529
:102CB000C003C00751113C41920210F8904C0B0C1C
:102CC000000E000F000F800DC03003116B270C0C9D
:102CD000B209148513F80F9031893009EC03FC0711
:102CE0001C0E001C98115E0005101C0C180E6020B4
:102CF00009C007F00F381C1818325409CC03EC0F28
:102D00003C0E1C1C2006121C2031D24582357C163C
:102D1000C07A3AE0C85A70DE05148021538407381F
:102D200006F007F0078CE005380CF80F60413052D0
:102D30001C2430091C1C381EF81BE019D1130C1C74
:102D4000C00B1BF0018A012114011F30091ACE1C8F
:102D50000510001C80720416F8DC1AF85C17800F4E
:102D6000600A1810F8C3F81F080D1E14051807088C
:102D7000003800F00114121F61161F9C1301381453
:102D8000091770796E6D2603FD2E033D7C03400C00
:102D900018180420C229224A11440902EC0C2211FD
:102DA00013E20C024004201818980315D4200403E1
:102DB000C00602396E2218022C07F83FF83F1C703B
:102DC000AF052119D9106C0503FC0F0C5E0310042C
:102DD0000CFC070E1A18A541021E180003FA077012
:102DE000BC0A1F38381C300C700660DD04E0086037
:102DF0000C701C30F01F903C08FE03FE0F060E0600
:102E0000A105B1022DB305E8050EFE0FFEA01DCCF5
:102E1000048DA20529AEADB0053D3803C5A211DC75
:102E20004DBB032D27038005F81FF81F0E4DD3035C
:102E3000DDCA043C0C0FF83F3C780E6006E007C08A
:102E4000810411A11DC5031533DC090EC03CF0F847
:102E50003FE00FBF03A23002319EB1120F260C30AB
:102E600080070D15A005021406022531DC0638077F
:102E7000F003E0B004353A10140C06060603860190
:102E8000C60066007600DE008E01060312360C6472
:102E9000DD4105021B18022530CD210320050EE07F
:102EA0001EF0024336D8022366CC0252C601E40566
:102EB00086C386C32010041C303C02126C0212CC64
:102EC0000210058C310C3302123602123C02E63835
:102ED000201C05E007F81F9904193EA303C002F85F
:102EE0000806600E701C38F8401BFC0F02CA3892AE
:102EF0000E190CC407916082E05E140907E00663B6
:102F00000E3F1C3CE0CEF79106198258041F06388C
:102F10009C1E38C00876074C49B20E106030065D22
:102F2000DE041D9B051BF80330331E00401C050EFC
:102F3000301C1C1005ED000308042A7FFE7F10E9F9
:102F40005EA97E0710181820430360BC6D14072D7E
:102F500016072D9409140570076003631DE005E151
:102F60003023C3610283663302236C1B02CC092C1D
:102F70001A3C1E380E380E31051C090FE00C701873
:102F80003030183F043C040EC0075E04140503E013
:102F90000670F71D8107D006300E6007E0602D79BE
:102FA000044C08301C383818300C65030D1C8007A1
:102FB0005C05FC7FFC7F6D07DD7C072D2708253E27
:102FC000ED10082FE003AE06011E0221282DA60AEF
:102FD0006DA6094DA8091D64096D0E0B7E03A0099D
:102FE000F1600221000261601D82071D4407256C0B
:102FF0003F6003D7042919013901CFFFFFF80B0DFA
:103000002DAE0A9D4A081805F003F807AA2C070CF4
:10301000000FF00FF8B1081F0C1C5C080F16F01819
:1030200020041ED8A80B1E38370881012DE0070F99
:1030300017D803DA091D9A096F300E39092DA30834
:103040001E309009EEC00009711F2805C01BF01F3B
:10305000368160000719301CF01FC01B601E0F83F3
:10306000066E18D4051952EC051CF00FC0F006448A
:10307000040FC00FDA2D9C0855E4B1020D17D40AD5
:103080001E0DFA093DCA0961011D600924050FE002
:103090000D002A6E06AA0895204F07F86A09D1018B
:1030A0000D16F00A0215C002012E3041DEEC04F8C4
:1030B0000078BE0C1C050C0C060C6A0D100DCC0023
:1030C0006C00FC009C018C030C03120E100C560CBF
:1030D000011C020D169009E0097C3CFF7EC7E383CA
:1030E000C1020D16EA0B062398200510E099101D69
:1030F0000E0E0A17C0700916A00D16EA0709177000
:103100000D151B081EB06E07FE70E20D0E18301470
:103110000D1E037A0E1D1A0B1DF2093D060C0D152E
:10312000900C1D020F0919A00F170780EA0D091056
:103130006A1238C01D4C0B0D15DB0A4DFE053E18FA
:10314000920F1DB7060E140300068DF80F3008C14C
:1031500041C141C3616301323601321C010D16F0D9
:103160000F3E1CF70952605A1D5E061D75061E387B
:10317000E10B0117C01D36061D38062E1828102F2A
:10318000E00C940A2D3E064DF00D1DA20D1D700C95
:103190000D159A0C0D1B800D8D300B8D320E2DE20E
:1031A00005BA40D63D900F0D259009CD22119E60A5
:1031B00024069DC60FB3030048FEC0A80E5D74052B
:1031C00000075110F81F080F0001600DC003300CFC
:1031D000081004200420024002210E0C05120810E1
:1031E000300C34032D3E052FF81F1A102D82084194
:1031F00002210E0F18F81F64031EE04C0EA9700F79
:103200001CF00FF60F21302D9E056102011E30AD1E
:10321000BC103AC04021660D10840A011430A16E22
:103220000D10A80D1D24063D42041DE30C0E2003C5
:103230000411A1B20122307D6C121D581010048CB3
:10324000018602128C0A00051EF001E00130100612
:10325000F801FC01FE0212FC0A011E30100B80076F
:10326000800F8019803180610212310A00041F0F23
:1032700080073010061F803F807F02123F0A011135
:10328000301805C001200233B005013006080121C5
:1032900016E1024DCE082D62091D4211A00407D887
:1032A0000D027DF603910201126023041059324091
:1032B000164310041211026C042004402E09C16050
:1032C0004C07CC19C631C26142091F700680084DF7
:1032D0003A101D69043D7D133F04063F0F20050190
:1032E000020304042C05060708095E030000000021
:04000005080001519D
:00000001FF
